:020000022000DC
:1060000000000120756302005D6302005F6302000F
:106010006163020063630200656302000000000028
:1060200000000000000000000000000067630200A4
:1060300069630200000000006B6302006D630200F0
:1060400071BD02006F630200D5CA02006F630200D7
:106050006F6302006F630200D1C902006F63020028
:106060006F6302006F6302006F6302006F630200E0
:106070006F6302006F6302006F6302006F630200D0
:106080006F630200619302006F6302006F6302009E
:106090006F6302006F630200E53E03006F6302005E
:1060A0006F6302006F6302006F6302006F630200A0
:1060B0006F6302006F630200000000000000000038
:1060C0006F6302006F6302006F6302006F63020080
:1060D0006F6302006F6302006F6302000000000044
:1060E00000000000000000000000000000000000B0
:1060F00000000000000000000000000000000000A0
:10610000000000000000000000000000000000008F
:10611000000000000000000000000000000000007F
:10612000000000000000000000000000000000006F
:10613000000000000000000000000000000000005F
:10614000000000000000000000000000000000004F
:10615000000000000000000000000000000000003F
:10616000000000000000000000000000000000002F
:10617000000000000000000000000000000000001F
:10618000000000000000000000000000000000000F
:1061900000000000000000000000000000000000FF
:1061A00000000000000000000000000000000000EF
:1061B00000000000000000000000000000000000DF
:1061C00000000000000000000000000000000000CF
:1061D00000000000000000000000000000000000BF
:1061E00000000000000000000000000000000000AF
:1061F000000000000000000000000000000000009F
:10620000354936480A1A02D0072291438D4634494F
:1062100034480A1A06D00722914381F309880222E2
:1062200082F3148830483149314A00F044F831484B
:106230003149324A00F03FF831483249324A00F0E1
:106240003AF832483249334A00F035F83248334997
:10625000334A00F030F833483349344A00F02BF821
:1062600033483449344A00F026F83448344900228F
:1062700000F02CF833483449002200F027F8334866
:106280003349091A082902DB002202604160314AC1
:1062900090471F481F49884205D00268043003B464
:1062A000904703BCF7E700208646EC46002000211B
:1062B000294A9047FEE7884207D0521A05D0037852
:1062C00001300B700131013AF9D17047884202D098
:1062D00002700130FAE770470000012000E0002062
:1062E000000001200000012048670300EC2A002084
:1062F000902B0020D0630200D06302007E46030092
:1063000048670300EC2A0020EC2A0020B84703006D
:10631000B8470300B8470300B8470300B847030075
:10632000B8470300B8470300B847030046670300B7
:10633000EC670300902B0020902B0020902B002076
:10634000905D0020905D0020905D0020905D002019
:10635000907D00209D630200E9030300FEE7FEE755
:10636000FEE7FEE7FEE7FEE7FEE7FEE7FEE7FEE705
:1063700000F002B8FFF7FCBF0F484FF00701884359
:1063800085460E4880470E48016841F4700101605F
:10639000BFF34F8FBFF36F8FFFF732BF09480A4932
:1063A0000A4A884207D0521A05D0037801300B7090
:1063B0000131013AF9D170470000012039AE0200E5
:1063C00088ED00E0A4470300D82A0020EC2A002032
:1063D00000B585B00190019B002B0AD0074B43F01C
:1063E00001030393019B9B010293039B029898472F
:1063F00000E000BF05B05DF804FB00BFD04703001C
:1064000000B583B00190019B002B0AD04FF47A7045
:10641000FFF7DEFF019B013B0193019B002BF5D1B0
:1064200000E000BF03B05DF804FB08B50AF022FBF2
:1064300000BF08BD00B589B0039002910192019B95
:10644000002B33D00023079303230693029A079B64
:106450001344019A194600200AF0BCFA0590079AE5
:10646000059B13440793019A059BD31A0193059B3F
:10647000002B13D10F4B1B7883F00103DBB2002BF1
:1064800013D10120FFF7BCFF069B013B0693069B3F
:10649000002B03D1074B00221A7007E0054B0122A5
:1064A0001A70019B002BD1D100E000BF00BF09B0E2
:1064B0005DF804FB902B002000B585B0039002919D
:1064C000054B00934023054A0299039800F012F807
:1064D00000BF05B05DF804FB35640200942B00207A
:1064E00082B0019000BF02B0704782B0019000BF3F
:1064F00002B0704700B5A1B00590049103920293D9
:10650000049803F001FF039B1593029B169300234D
:10651000179300238DF8603000231993229B1A9360
:1065200000231F930FA91F9B0822049803F0C6FFA6
:1065300008231F93119B1293BDF84030ADF84C30E7
:10654000BDF84230ADF84E3000238DF851309DF843
:106550003C3003F00303DBB2012B26D10F9BC3F3C6
:1065600095231C939DF83C30C3F3C203DBB28DF836
:106570005030BDF83C30C3F38313DBB21B931B9B3D
:106580009A0009A91F9B049803F098FF1B9B9B008E
:106590001F9A13441F9312AA09A915AB009313461F
:1065A0001B9A1C9800F0E0FE2FE09DF83C3003F0B1
:1065B0000303DBB2022B28D1BDF83E30C3F38913AD
:1065C0009BB21E939DF83C30C3F3C203DBB28DF83F
:1065D00050301E9B082B28BF08231D9307A91F9B23
:1065E0001D9A049803F06AFF1F9A1D9B13441F9382
:1065F0001E9A1D9BD31A1E9315AB12AA07A81D99AC
:1066000000F054FF1E9B002BE3D1049803F08BFE97
:1066100000BF21B05DF804FB82B00190019BDB68F4
:1066200001225A7100BF02B07047000000B583B06C
:106630004FF0FF330193FFF7F8FE0421084800F004
:10664000AFFD0190019B002B03DA0649412009F0C0
:106650005BF90348FFF7E0FF00BF03B05DF804FB00
:1066600094470300E847030000B583B00190009110
:10667000019B1B681B6800990198984700BF03B0F5
:106680005DF804FB00B583B00190019B1B685B685B
:106690000198984700BF03B05DF804FB00B583B0D4
:1066A0000190019B1B689B680198984700BF03B04D
:1066B0005DF804FB82B001900B468DF80330019B1E
:1066C000DB689DF803201A7100BF02B0704782B0EA
:1066D0000190019BDB681B79184602B0704782B0BD
:1066E0000190019BDB6801225A7100BF02B0704724
:1066F00082B00190019BDB685B79184602B070475D
:1067000000B585B0019000910C4B00221A700C4826
:1067100003F05EFD0390039B002B01D0039B08E078
:10672000084803F089FF084A084BD31ADB08029394
:106730000023184605B05DF804FB00BF3C2D002087
:10674000F846030044480300944703000C47030045
:10675000024A034BD31ADB081846704794470300DC
:106760000C47030000B587B001900B468DF803304D
:106770009DF80330002B1FD0FFF7EAFF04900023A1
:10678000059313E0059B9B000E4A13440393039B60
:106790001B881A46019B1B689A4204D1019B059AEB
:1067A0001A60002309E0059B01330593059A049BB9
:1067B0009A42E7D3052300E00023184607B05DF8AE
:1067C00004FB00BFEC2A002000B585B001900B4609
:1067D0008DF803309DF8032001AB11461846FFF7F2
:1067E000C1FF0346002B07D1019BDB00054A134480
:1067F0000393039B1B6800E00023184605B05DF877
:1068000004FB00BF0C47030084B001900B468DF8D9
:106810000330019BDB00174A134402939DF80330B9
:10682000013B032B1CD801A252F823F03D68020063
:10683000456802004D6802005768020002238DF887
:106840000F3011E004238DF80F300DE0029B1B790F
:106850008DF80F3008E0029B5B798DF80F3003E074
:1068600000238DF80F3000BF9DF80F30184604B09C
:10687000704700BF0C47030084B0019000910023D3
:106880008DF80F30019B1B7803F00403DBB2002B63
:1068900024D0019B1B78C3F30103DBB2012B02D090
:1068A000022B0CD017E0009B1B68019A1288C2F3E0
:1068B0008312D2B213449A1C009B1A600BE0009B17
:1068C0001B68019A5288C2F3891292B213449A1C2F
:1068D000009B1A6000BF01238DF80F309DF80F3028
:1068E000184604B07047000000B58BB00023ADF827
:1068F00026303E4802F078FF3D4802F075FF3D4BE0
:106900009B6804933C4B1B680693049A069B1340B8
:1069100002339B00374A13440433089304AB1946EF
:106920000898FFF7A9FF0346002B09D0049A069B9D
:10693000134002339B002F4A134404330893EDE7BE
:1069400000BF0023079311E0049B5A1C0492069A8F
:106950001340079A920001A90A44264902339B007A
:106960000B445B681360079B01330793079B012B64
:10697000EAD99DF80430C3F30103DBB2012B10D038
:10698000022B1CD1BDF80A30ADF82630BDF8063018
:10699000C3F389139BB203339A08049B13440493F3
:1069A00013E0BDF80A30ADF82630BDF80430C3F36B
:1069B0008313DBB21A46049B1344049305E00F498A
:1069C0004FF4C27008F0A0FF00BF094802F018FFA2
:1069D0000590059B002B02D0049B064A9360BDF8EE
:1069E000263018460BB05DF804FB00BF5431002080
:1069F000503100203C2D0020F42A00205448030090
:106A000000B585B00021074802F03BFE0390039BD0
:106A10000293029B83F310030193019B184605B078
:106A20005DF804FB5831002000B589B00390029155
:106A300001920093039B1B0C0793FFF7E1FF069065
:106A4000FFF786FE0246079B934204D3214940F29A
:106A5000A91008F059FF069B1904009B5A1C0A9BB9
:106A60001340079A0A431C4902339B000B445A60A7
:106A7000009A0A9B134002339B00174A13440433C5
:106A80000593039B03F00703D9B2059A137861F3CA
:106A9000C5031370019B03F00F03D9B2059A138845
:106AA00061F389131380029BC3F31501059A1368E0
:106AB00061F39F231360059A1378012161F30103A9
:106AC0001370059A13786FF38203137000BF09B037
:106AD0005DF804FB544803003C2D002000B58DB048
:106AE0000390029113468DF80730039B02330A93FB
:106AF00001238DF8273000238DF81B300DF11B0387
:106B0000184602F001F8404B5A68029B1A603F4B4E
:106B10001A683D4B99683C4B5B68CB1A13440133B0
:106B20000B9314E001213A4802F022FEFFF7DCFE4D
:106B300007900799364802F01BFE344B1A68324B17
:106B40009968314B5B68CB1A134401330B930A9A53
:106B50000B9B9A42E6D89DF82730002B48D00023A3
:106B600005939DF80730002B17D09DF814300122B3
:106B700062F301038DF814309DF8143043F00403E0
:106B80008DF81430039B03F00F03DAB2BDF8143014
:106B900062F38913ADF8143016E09DF81430022228
:106BA00062F301038DF814309DF8143043F00403B0
:106BB0008DF81430039BC3F309039AB2BDF8163065
:106BC00062F38F13ADF816300F4B5A680F4B1B68EA
:106BD000134002339B000C4A134404330893059A74
:106BE000089B1A60084B5A680A9B1344064A536074
:106BF0009DF81B30184601F09DFF9DF82730184680
:106C00000DB05DF804FB00BF3C2D0020F42A0020ED
:106C10005831002000B58BB0059004910392029387
:106C20001F4B1B68079306AB012219460298FFF71A
:106C300055FF0346002B24D0069B02330993002303
:106C4000089311E0089B9B00039A1A44099B591C66
:106C5000099107990B401268124902339B000B44BB
:106C60005A60089B01330893089A029B9A42E9D321
:106C7000069A079B00931346029A04990598FFF71A
:106C8000D3FE084B1B78002B05D000BF00F07EF828
:106C90000346002BFAD100BF0BB05DF804FB00BF28
:106CA000F42A00203C2D002000B583B00190009113
:106CB0000023002200990198FFF7ACFF00BF03B04A
:106CC0005DF804FB00B587B0039002910192019B2F
:106CD000059305AA012302990398FFF79BFF00BFC4
:106CE00007B05DF804FB00B587B0039002910192F4
:106CF0000093019B0493009B059304AA022302992D
:106D00000398FFF787FF00BF07B05DF804FB00B5ED
:106D100089B00390029101920093019B0593009B1F
:106D200006930A9B079305AA032302990398FFF78A
:106D300071FF00BF09B05DF804FB00B58BB0039094
:106D4000029101920093019B0593009B06930C9B7B
:106D500007930D9B08930E9B099305AA052302999F
:106D60000398FFF757FF00BF0BB05DF804FB00006E
:106D7000054B9A68044B5B689A420CBF01230023C1
:106D8000DBB21846704700BF3C2D002000B599B01B
:106D9000FFF7EEFF0346002B01D00023C0E19B4B21
:106DA0000022C3F81824BFF34F8F00BF974B9B6896
:106DB0000493974B1B681093049A109B1340023363
:106DC0009B00924A1344043311930023179300232A
:106DD000169300230F9304AB19461198FFF74CFD4F
:106DE0000346002B19D0894BD3F81834002B14D14B
:106DF000864B5A68049B9A4205D8844B5B68834A49
:106E0000936000238CE1049A109B134002339B0093
:106E10007E4A134404331193DDE70023159311E0F8
:106E2000049B5A1C0492109A1340159A920001A9CF
:106E30000A44764902339B000B445B681360159B40
:106E400001331593159B012BEAD99DF8043003F00B
:106E50000303DBB2022B40F09C80BDF80630C3F385
:106E600089139BB20D93BDF80630C3F389139BB20F
:106E7000502B28BF50239BB20C930C9BC3F30903E8
:106E80009AB2BDF8063062F38F13ADF806300C9B52
:106E900008330B939DF80430C3F3C203DBB20F93A6
:106EA0000B995C4803F09FF91790179B002B00F09B
:106EB000D380179803F028FA01A9169B0822179887
:106EC00003F0DEFA169B08331693049BDA43109BFB
:106ED000134001339B000A930C9A0A9B9A4242D9B1
:106EE0000A9B002B08D0049A109B134002339B008E
:106EF000464A1344043300E0474B08930A9B002B97
:106F000002D00A9BDBB201E00C9BDBB28DF81F3094
:106F10000A9B002B01D0404B00E0002306930A9B04
:106F2000002B06D00C9BDAB20A9BDBB2D31ADBB281
:106F300000E000238DF817309DF81F20169B08995C
:106F4000179803F09DFA9DF81F30169A1344169374
:106F5000069B002B16D09DF81720169B06991798B4
:106F600003F08EFA0EE0049A109B134002339B004C
:106F7000264A134404330993169B0C9A09991798CF
:106F800003F07EFA0D9B03339A08049B1344049389
:106F900062E09DF8043003F00303DBB2012B5BD108
:106FA000BDF80430C3F38313DBB2062B28BF0623DE
:106FB000DAB2BDF8043062F38913ADF80430BDF8DD
:106FC0000430C3F38313DBB202330E939DF8043015
:106FD000C3F3C203DBB20F930E9B9B0019460D480F
:106FE00003F001F91790179B002B35D0179803F089
:106FF0008BF901A9169B0822179803F041FA169BFA
:1070000008331693002315931DE000BF3C2D00208C
:10701000F42A0020F8460300482D0020049B5A1C47
:107020000492109A134002339B003F4A1344191DE7
:10703000169B0422179803F023FA169B0433169329
:10704000159B01331593BDF80430C3F38313DBB2F2
:107050001A46159B9342E1D3179B002B40D0324B2D
:10706000D3F810341493304BD3F81834002B1BD0C2
:10707000179803F058F94DE000238DF84F3014981D
:10708000FFF736FB0346002B02D001238DF84F306B
:107090009DF84F30002B03D017991498FFF7E4FAAE
:1070A000149BDB681B681493149B002BE4D1179886
:1070B00003F039F900238DF803300DF1030318466E
:1070C00001F022FD184BD3F81834002B02D1049B99
:1070D000154A93609DF80330184601F02BFD19E026
:1070E000114BD3F81034129306E01298FFF7D6FA3A
:1070F000129BDB681B681293129B002BF5D10B4A85
:107100000B4BD31ADB081B0443F002030949184652
:10711000FFF7CAFDFFF72CFE034683F00103DBB245
:10712000184619B05DF804FB3C2D002034470300DD
:107130000C470300A848030000B585B00023039363
:1071400023E0164BD3F81034029301238DF8073057
:107150000FE00298FFF7BBFA03461A46039B9342DF
:1071600003D100238DF8073006E0029BDB681B6823
:107170000293029B002BECD19DF80730002B01D02D
:10718000039B07E0039B01330393039B092BD8DD8B
:107190004FF0FF33184605B05DF804FB3C2D00208E
:1071A00000B585B001900B468DF80330FFF7C4FFA2
:1071B0000390039BB3F1FF3F01D1039B22E0039BAC
:1071C000DBB219460198FFF775FA104BD3F810346B
:1071D000002B08D10D4A019BC2F81034019BDB68DB
:1071E00000221A600DE0094BD3F81034DA68019BD5
:1071F000DB6812681A60054BD3F81034DB68019A1B
:107200001A60039B184605B05DF804FB3C2D002076
:1072100000B583B00C4BD3F8103401930A4B012214
:107220001A7009E00198FFF75AFA0198FFF72AFA55
:10723000019BDB681B680193019B002BF2D100BF0F
:1072400000BF03B05DF804FB3C2D002082B001902C
:10725000009100BF02B0704710B584B00390029156
:10726000039BDB88002B0AD0039BDB881A461F4B4D
:10727000009313461E4A1F49029802F0FDFB039B30
:107280001B7A052B2ED0039B5B7A002B12D0039B1D
:107290009B881A46039B1B7A19461046FFF7B4FADF
:1072A00003461A46144B53F822301A4613490298E3
:1072B00002F0E2FB039B1B6819460298FFF7C6FF2A
:1072C000039B1B7A1A460E4B53F82240039B9B8864
:1072D00000211846FFF778FA03462246094902982A
:1072E00002F0CAFB00BF04B010BD00BFDC480300C1
:1072F000EC480300244903000C2B00203C49030008
:10730000F82A00204049030000B585B0039002919F
:1073100013468DF80730039B1B7A052B0FD0039B78
:107320005B7A002B06D00D4B1B681A460C4902985D
:1073300002F0A2FB0B49029802F09EFB07E09DF8C9
:107340000730002B03D00749029802F095FB029802
:1073500002F070FB00BF05B05DF804FB0C2B0020B1
:107360003C4903004C49030030B58BB007900691AF
:10737000059204930E9B1B7B8DF827300E9B0022F9
:107380001A730E990498FFF767FF059B062B7FD8A9
:1073900001A252F823F000BFB5730200BF730200D0
:1073A000CF730200E373020001740200297402002B
:1073B0005974020007990E9802F05EFB69E0069B83
:1073C0001B681A4607990E9802F056FB61E0069B6F
:1073D0001A68069B04331B6807990E9802F04CFB51
:1073E00057E0069B1A68069B04331968069B08330E
:1073F0001B6800930B4607990E9802F03DFB48E08E
:10740000069B1968069B04331868069B08331B68A3
:10741000069A0C3212680192009303460A460799B5
:107420000E9802F029FB34E0069B1868069B043393
:107430001C68069B08331B68069A0C321268069972
:107440001031096802910192009323460246079980
:107450000E9802F011FB1CE0069B1C68069B04338F
:107460001D68069B08331B68069A0C321268069941
:107470001031096806981430006803900291019257
:1074800000932B46224607990E9802F0F5FA00E089
:1074900000BF00220E990498FFF736FF0E9B9DF85F
:1074A00027201A7300BF0BB030BD00BF00B587B0F6
:1074B0000390029101920093029B082B60D8009BDD
:1074C0001B7B8DF81330009B00221A7300990198E2
:1074D000FFF7C2FE0023059314E0059A029B9A422F
:1074E00009D2039A059B13441B781A462649009833
:1074F00002F0C2FA03E02549009802F0BDFA059BAC
:1075000001330593059B072BE7D92149009802F029
:10751000B3FA0023059326E0059A029B9A421BD2F8
:10752000039A059B13441B788DF812309DF8123096
:107530007E2B0AD89DF8123018460CF0F1FF034656
:10754000002B02D09DF8123000E02E231A4611497C
:10755000009802F091FA03E00F49009802F08CFACB
:10756000059B01330593059B072BD5D90122009973
:107570000198FFF7C9FE009B9DF813201A7300E0E5
:1075800000BF07B05DF804FB5049030058490300F1
:107590005C490300604903006449030084B003466A
:1075A0008DF807309DF807305B08DBB21A460D4BAB
:1075B0009B5C8DF80F309DF8073003F00103002B22
:1075C00004D09DF80F301B09DBB204E09DF80F30AA
:1075D00003F00F03DBB28DF80E309DF80E30184625
:1075E00004B070479031002084B003460A468DF8FD
:1075F000073013468DF806309DF8073003F001037D
:10760000002B01D00F2300E0F0238DF80F309DF800
:10761000073003F00103002B04D09DF806301B0156
:10762000DBB201E09DF806308DF80E309DF8073092
:107630005B08DBB21A46114B9A5C9DF807305B0879
:10764000DBB219469DF80F301340DAB20B4B5A5497
:107650009DF807305B08DBB21A46084B9A5C9DF830
:1076600007305B08DBB219469DF80E301343DAB2DF
:10767000024B5A5400BF04B0704700BF9031002045
:1076800000B585B003468DF807300023039310E062
:107690000F4B1A68039BDB0013440293029B1B7879
:1076A0009DF807209A4201D1029B0DE0039B013314
:1076B0000393084B1B781A46039B9342E8DB064969
:1076C000882008F021F90023184605B05DF804FB76
:1076D0005C310020603100207449030000B585B0A2
:1076E00003460A468DF8073013468DF806309DF89C
:1076F00007301846FFF7C4FF0390039B002B0BD005
:10770000039B5B68002B07D0039B5B689DF806100A
:107710009DF807201046984700BF05B05DF804FBB0
:107720002DE9F04F87B003460A468DF80F30134617
:107730008DF80E309DF80F301846FFF72FFF0346E7
:10774000042B00F2C28001A252F823F061770200FC
:10775000D5770200F1770200217802003778020025
:107760009DF80E30002B00F0AD809DF80F30012108
:107770001846FFF739FF00238DF817300DF1170376
:10778000184601F0C1F99DF80F104FF001024FF0BB
:107790000003A1F12004C1F1200003FA01F702FA6D
:1077A00004F4274322FA00F0074302FA01F6494B9A
:1077B000D3E9002346EA020100913B430193454B84
:1077C000DDE90012C3E900129DF81730184601F0F8
:1077D000B1F977E09DF80E30002B01D0022200E0D5
:1077E00000229DF80F3011461846FFF7FDFE6CE0B1
:1077F0009DF80E30002B0CD09DF80F300321184659
:10780000FFF7F2FE9DF80F3001211846FFF766FFE3
:107810005BE09DF80F3001211846FFF7E5FE54E0CC
:107820009DF80E30002B4FD19DF80F3004211846E3
:10783000FFF7DAFE48E09DF80E30002B06D09DF8E9
:107840000F3003211846FFF7CFFE3EE09DF80F30C2
:1078500000211846FFF7C8FE9DF80F30002118469A
:10786000FFF73CFF00238DF816300DF11603184684
:1078700001F04AF99DF80F104FF001024FF000039C
:10788000A1F12006C1F1200003FA01F502FA06F683
:10789000354322FA00F0054302FA01F46FEA0408C6
:1078A0006FEA05090B4BD3E9002308EA020A09EA4B
:1078B000030B084BC3E900AB9DF81630184601F0E6
:1078C00039F902E000BF00E000BF00BF07B0BDE82B
:1078D000F08F00BF8831002000B583B00648074B09
:1078E0001B685B080022194600F010FE019000BFE3
:1078F00003B05DF804FB00BF683100206431002054
:1079000000B587B001900023059328E01C4B1A684E
:10791000059BDB0013440493049B1B78184604F07A
:10792000A7FF03468DF80F30049B5B78012B0CBF3B
:1079300001230023DBB21A469DF80F309A420CBF98
:10794000012300238DF80E30049B1B789DF80E2038
:1079500011461846FFF7E4FE059B01330593094BDA
:107960001B781A46059B9342D0DB074BD3E90023D3
:10797000134301D0FFF7B0FF00BF07B05DF804FB71
:107980005C310020603100208831002000B585B0D6
:1079900001900B468DF80330019BDBB21846FFF7D0
:1079A0006FFE0390039B1B78184604F061FF0346AB
:1079B0008DF80B30039B5B78012B0CBF0123002358
:1079C000DBB21A469DF80B309A420CBF012300230C
:1079D0008DF80A309DF80A30002B06D0054BD3E90C
:1079E0000023134301D1FFF777FF00BF05B05DF817
:1079F00004FB00BF8831002000B58BB003900B461C
:107A000001928DF80B30019B092B01D8072367E009
:107A100004F022FE034683F00103DBB2002B09D001
:107A200004F0B6FD0990099B0893089B002B01D038
:107A3000089B55E02C4A039B13602C4A9DF80B30A1
:107A400013702B4A019B13601022002129480CF06F
:107A5000B1FD29494FF000024FF00003C1E90023B6
:107A600031E09DF80B30DB00039A134407930323A6
:107A70008DF8143000238DF815309DF816306FF313
:107A800000038DF816309DF816306FF341038DF822
:107A900016309DF816306FF382038DF81630079B71
:107AA0009B788DF81530079B1B78184605AB134A59
:107AB000194604F0DDFD0990099B0693069B002BF7
:107AC00001D0069B0CE09DF80B305A1E8DF80B2060
:107AD000002BC6D10A4A00210A4800F0E3FC034605
:107AE00018460BB05DF804FB5C31002060310020CB
:107AF0006431002090310020883100208D7902000F
:107B000001790200C049030000B583B0114B1B6826
:107B1000002B04D1104940F2351007F0F5FE002388
:107B200001930CE00B4B1A68019BDB0013441B789C
:107B30000121184604F018FE019B01330193074B05
:107B40001B781A46019B9342ECD30023184603B0DE
:107B50005DF804FB5C3100207449030060310020B3
:107B600086B003900291019201238DF817309DF8A1
:107B70001730204A039B13601E4A029B53601D4A24
:107B8000019B9360039B44F20102934212D0039B3A
:107B900044F20202934220D1019B164AD360154B56
:107BA000DB681B68134A9361124BDB685B68114A00
:107BB000D36112E0019B0F4A13610E4B1B699B6856
:107BC0000C4A53610B4B1B691B680A4A9361094BB2
:107BD0001B695B68074AD36100BF72B600BF00BF74
:107BE0009DF81730DBB2002BFAD162B600BF00BFA0
:107BF00006B07047A031002000B583B0029000911C
:107C0000019244F2010071466A4600F003F803B0A5
:107C100000BD00BF30B58BB007900691059272B6DB
:107C200000BFFFF7F5FA00BFFFF7B0F80346002BDF
:107C3000FAD1079B44F2020293422FD0079B44F2F1
:107C40000202934269D8079B44F20102934237D063
:107C5000079B44F2010293425FD8079B012B05D09A
:107C6000079B41F2010293420CD056E0394A3A4B4D
:107C7000D31ADB081B0443F0010338491846FFF709
:107C800013F857E0334A344BD31ADB081B0443F094
:107C9000010333491846FFF707F84BE0059B0993AA
:107CA0002C4A2D4BD31ADB081B0443F00100099B1F
:107CB0005B681A46099B1B682A49FFF714F839E0EC
:107CC000059B0893234A244BD31ADB081B0443F07B
:107CD0000104089B9D68089B9B68184602F0CCFD38
:107CE00003461846089B5B681946089B1B68069A62
:107CF00002920193009103462A461B492046FFF752
:107D00001CF8144A144BD31ADB081B0443F001037C
:107D100016491846FEF7C8FF0CE00E4A0E4BD31A60
:107D2000DB081B0443F00103069A11491846FEF7CD
:107D3000C9FF00BF0F4B1B6803F00103002B00D0ED
:107D400000BE059A06990798FFF70AFF00BF0BB01F
:107D500030BD00BF344703000C470300C449030093
:107D6000E4490300084A0300244A03004C4A030084
:107D7000604A0300F0ED00E084B00190019B9B6835
:107D80000393019BDA68039BD31A184604B070472B
:107D900082B001900B468DF80330019B1A68019B5D
:107DA000DB68019989880B4013449DF803201A7001
:107DB000019BDB685A1C019BDA6000BF02B0704770
:107DC00084B003900B460192ADF80A30039B1A6809
:107DD000039B9968BDF80A300B44039989880B40CE
:107DE00013441A78019B1A7000BF04B0704700B5A5
:107DF00083B001900091009A00210198FFF7E0FF05
:107E0000019B9B685A1C019B9A6000BF03B05DF800
:107E100004FB84B0039002911346ADF80630029B38
:107E2000002B01D10E231DE0BDF80630002B07D03A
:107E3000BDF806305A1EBDF806301340002B01D0A5
:107E400009230FE0039B029A1A60BDF80630013B3C
:107E50009AB2039B9A80039B00229A60039B0022A4
:107E6000DA600023184604B0704700B583B0019073
:107E70000B468DF803300198FFF77EFF0246019B09
:107E80009B889A4207D89DF8033019460198FFF75E
:107E90007FFF002300E00423184603B05DF804FBD5
:107EA00000B583B0019000910198FFF765FF03468C
:107EB000002B05D000990198FFF799FF002300E0FF
:107EC0000523184603B05DF804FB00002DE9F043DC
:107ED00083B0144801F029FA034600221C461546D7
:107EE000114BD3E9002314EB020845EB0309CDE95C
:107EF00000890E4BD3E90023DDE90001904271EBCC
:107F0000030307D2DDE9002312F1807643F1000775
:107F1000CDE90067DDE900231046194603B0BDE84E
:107F2000F08300BF302B0020C8310020D03100206A
:107F300088B001900091019B0793009B0693079BDB
:107F4000D3E90223CDE90423069BD3E90223CDE93B
:107F50000223DDE90423DDE90201904271EB030312
:107F60002CBF01230023DBB2184608B07047000085
:107F7000F0B585B00190019B5B69002B03D12B49C3
:107F8000A22007F0C1FC00238DF80F30284B1B788E
:107F9000002B45D0019B002B42D0019B1B7FDBB205
:107FA000002B3DD0FFF792FF019BD3E902239042C3
:107FB00071EB03032CD3019B1B69002B02D1019BA6
:107FC00000221A77019B5B69019A926910469847D3
:107FD000019B1B69002B23D0019B1B7FDBB2002B75
:107FE0001ED0019BD3E902230199096900200C46A8
:107FF0000546161943EB0507019BC3E90267019B80
:1080000019460C4802F092FB01238DF80F3007E06F
:10801000019B1946074802F089FB01238DF80F30B8
:108020009DF80F30184605B0F0BD00BF844A03002C
:10803000C4310020D44A0300F0B589B0019000910A
:108040000D230793009B00221A70019BD3E9024580
:10805000FFF73CFF02460B46A61A65EB0307CDE986
:108060000467DDE90423012A73F100031BDB049B91
:10807000B3F5350F05D300F0A9FA0246154B1344AA
:1080800003E0019BD3E90223134603934FF49603C5
:10809000039A0021104801F03BF80790079B002B42
:1080A00005D1012313E000210B4801F009F9079BDA
:1080B0000D2B07D10198FFF75BFF03461A46009B83
:1080C0001A7003E00549F52007F01EFC002318464E
:1080D00009B0F0BDFFFFB400302B0020844A03003C
:1080E00000B583B0044802F05BFB0190019B184689
:1080F00003B05DF804FB00BFD44A030000B583B0B1
:10810000044802F06FFB0190019B184603B05DF834
:1081100004FB00BFD44A030000B583B0FFF7E0FFC3
:108120000190019B002B02D0019B00221A77019B3A
:10813000002BF3D100BF00BF03B05DF804FB0000CB
:10814000054BD3E9002312F1807043F10001024B8B
:10815000C3E9000100BF7047C831002010B582B0EC
:108160000190124B1B68002B1DD0019801F0DDF827
:1081700004460021019801F0C9F80346194620463B
:1081800000F018FA0346B3F5960F04D308494FF4EC
:10819000957007F0B9FB054B1B681846FFF7E8FE22
:1081A000024B00221A6000BF02B010BDC031002097
:1081B000844A030000B583B00190FFF787FE0246B2
:1081C0000B460349C1E9002300BF03B05DF804FB7F
:1081D000D031002000B585B00190FFF78FFF0390EC
:1081E00000238DF80B30039B002B48D02B4B1B68D2
:1081F000002B03D101238DF80B3019E0039BD3E949
:108200000201264B1B68D3E90223904271EB030362
:108210000ED201238DF80B30204B1B681B7FDBB285
:10822000002B05D01D4B1B6819461D4802F07EFA35
:108230009DF80B30002B2AD0FFF752FF03900DF171
:108240000A0319460398FFF7F7FE0346002B12D0E6
:10825000124B1B68002B02D1019800F065FE0F4AFB
:10826000039B13609DF80A3083F00103DBB2002BFF
:10827000B3D000BF0EE0094B00221A60ADE7074BF8
:108280001B68002B05D1019800F064FE01E000BFDF
:1082900000E000BF00BF05B05DF804FBC031002066
:1082A000D44A030000B587B001902C4A03AB1946AD
:1082B000104601F070F9059048E0059B1B78022BF1
:1082C0002ED0022B32DC002B02D0012B14D02DE05B
:1082D000059B5B681B7FDBB283F00103DBB2002BE5
:1082E00026D0059B5B6801221A77059B5B681946BF
:1082F0001B4802F01BFA1BE0059B5A68194B1B68D0
:108300009A4203D1174B00221A6012E0059B5B686A
:108310001946134802F07AFA03468DF8133008E044
:10832000FFF7FAFE104B01221A7002E000BF00E0D6
:1083300000BF0A4A03AB1946104601F045F9074A47
:1083400003AB1946104601F026F90590059B002B5A
:10835000B3D100BF00BF07B05DF804FB303200208E
:10836000D44A0300C0310020C431002000B583B0DE
:108370000190019800F097FF0346002B01D0FFF712
:10838000DFFE0021019800F0ACFF0346002B02D075
:108390000198FFF7E3FE0121019800F0A2FF0346D8
:1083A000002B02D00198FFF705FF0198FFF77AFF35
:1083B0000198FFF70FFF00BF03B05DF804FB00005A
:1083C00008B5024800F0BEFF00BF08BD302B0020FA
:1083D00000B585B0034600918DF80730114A02AB15
:1083E0001946104601F0AAF80390039B002B13D006
:1083F000039B9DF807201A70039B009A5A60094A54
:1084000002AB1946104601F0B2F80346002B01D02A
:10841000FFF7D6FF002300E00423184605B05DF8FF
:1084200004FB00BF3032002000B583B0164B1B6840
:108430000093164808235822154901F038F8019096
:10844000019B002B01D0019B19E06B46114A194694
:10845000114800F0EBFC0190019B002B01D0019B27
:108460000DE001210C4800F00DFF01230B4A012112
:10847000094800F085FD0A4B01221A70019B18463D
:1084800003B05DF804FB00BFD04A03003032002087
:10849000D83100206D830200302B0020FFFF7F00C9
:1084A000C431002000B587B003900B4601928DF8CF
:1084B0000B30039B002B04D1134940F22E2007F010
:1084C00023FA019B002B04D10F4940F22F2007F023
:1084D0001BFA019B002B01D1072310E0039B1B68B3
:1084E0000593059B019A5A619DF80B30012B0CBF37
:1084F00001230023DBB21A46059B1A6100231846AC
:1085000007B05DF804FB00BF844A0300F0B587B0F4
:10851000039002910192039B002B04D1164940F273
:108520003E2007F0F1F9039B0593059B1B7FDBB20F
:10853000002B01D000231CE0059B019A9A61FFF7F4
:10854000C5FC02460B46029900200C46054616194A
:1085500043EB0507059BC3E90267059B1B69002BDD
:1085600002D0059B029A1A6105990020FFF730FF9F
:108570000346184607B0F0BD844A030000B585B035
:108580000190019B002B04D109494FF4157007F0AD
:10859000BBF9019B0393039B00221A7703990120E7
:1085A000FFF716FF0346184605B05DF804FB00BF51
:1085B000844A030082B001900091019A009BD31A73
:1085C00023F07F43184602B07047000008B5034807
:1085D00000F0ABFE0346184608BD00BF302B00205C
:1085E00000B587B00390029113468DF80730002341
:1085F0000593039B1B781A46114B9B5C002B09D0FB
:10860000039B04339DF807200299184605F05EFC91
:1086100005900FE0039B1B781A46094B9B5C002BCF
:1086200008D1039B0C339DF807200299184604F0EB
:10863000F7FD0590059B184607B05DF804FB00BFE9
:10864000B432002000B585B0019000238DF80F30C2
:10865000019B1B781A46114B9B5C002B08D0019B99
:108660000433184605F0F0FC03468DF80F300EE099
:10867000019B1B781A46094B9B5C002B07D1019B81
:108680000C33184604F054FE03468DF80F309DF865
:108690000F30184605B05DF804FB00BFB43200206F
:1086A00000B587B00390029113468DF80730002380
:1086B0000593039B1B781A46114B9B5C002B09D03A
:1086C000039B04339DF807200299184605F0D4FC5B
:1086D00005900FE0039B1B781A46094B9B5C002B0F
:1086E00008D1039B0C339DF807200299184604F02B
:1086F00077FE0590059B184607B05DF804FB00BFA8
:10870000B432002084B00190019B9B680393019BCD
:10871000DA68039BD31A184604B0704700B587B0D7
:1087200001900091019B1B78022B45D0022B6ADC43
:10873000002B52D0012B66D1019B1B7A002B05D157
:10874000012233493348FFF7ABFF5DE0019B5B68D3
:108750001B7819463048FFF788FB0590059B002BD6
:108760000AD001238DF80C30059B04932B4B1B681A
:1087700003AA104698470DE02748FFF7C3FF0346BA
:10878000002B07D000238DF80C30244B1B6803AA64
:10879000104698472048FFF7B5FF03461E4A9288C7
:1087A000934205D801221A491A48FFF779FF2BE0B6
:1087B0001B4B01221A7027E002238DF80C30019B1D
:1087C000DB680493012212491248FFF769FF134B3B
:1087D0001B6803AA1046984716E012491248FFF793
:1087E0005FFB0346002B05D101220E490948FFF724
:1087F000F7FE09E003238DF80C30084B1B6803AA31
:108800001046984700E000BF00BF07B05DF804FBCA
:108810004C320020382B00205032002044320020FF
:108820004D320020483200206032002030B591B037
:108830000390029101928DF803303C4A019B136032
:10884000029B002B01D107236DE0029B1968029B5C
:108850005B689BB21A463648FFF7DBFA0F900F9B16
:108860000E930E9B002B01D00E9B5CE0029B99683F
:10887000029BDB689BB21A462E48FFF7CAFA0F909C
:108880000F9B0D930D9B002B01D00D9B4BE02A4BB2
:1088900004AC1D460FCD0FC495E80F0084E80F000F
:1088A000039B5B690A93039B1B7C002B14BF012372
:1088B0000023DBB28DF824309DF803308DF82C3086
:1088C000039B5B7C002B01D00E2300E000238DF87E
:1088D0002530039BDB680693039B9B680793039BF0
:1088E0001B680593039B5B68049304AB134A19460A
:1088F000134803F059F80F900F9B0C930C9B002B1F
:1089000001D00C9B0FE00F4B00221A70039B1B68D9
:10891000B3F1FF3F06D001220B490948FFF7C0FE23
:10892000034600E00023184611B030BD4432002059
:108930005032002060320020E04A03001D87020010
:10894000382B00204D3200204C32002000B587B07B
:108950000190019B002B03D11449CA2006F0D4FFDB
:10896000134B1B788DF8173001991248FFF798FACE
:1089700004909DF81730002B12D00D4B00221A7076
:1089800001220D490D48FFF78BFE0390039B0293D4
:10899000029B002B04D0054AD6210298FFF72CF940
:1089A000049B184607B05DF804FB00BF004B0300B2
:1089B0004D320020503200204C320020382B002055
:1089C00000B585B003468DF807309DF8073019468D
:1089D0001048FFF74AFA0390039B002B15D10E486D
:1089E000FFF730FE034683F00103DBB2002B0CD00F
:1089F0000A490848FFF754FA0346002B05D1012223
:108A000006490548FFF7ECFD0390039B184605B0A7
:108A10005DF804FB60320020382B00204832002033
:108A200082B0EFF310830093009B019372B600BFF6
:108A3000019B184602B0704762B600BF00BF704786
:108A400000B585B00190FFF7EBFF0390164B9B68D4
:108A5000002B1BD1144B01229A60144BD3F88020B9
:108A6000134B1340104A1360104B114AC3F8802077
:108A70000E4BD3F884300C4A53600C4B4FF0FF324E
:108A8000C3F88420019B00221A7002E0019B01229E
:108A90001A70039B002B01D1FFF7CEFF002318466D
:108AA00005B05DF804FB00BF7032002000E100E07B
:108AB000FC06FFBD00B585B003468DF80730104BAE
:108AC0009B68002B16D09DF80730002B12D1FFF7C2
:108AD000A7FF03900B4A0A4B1B681360094A084B17
:108AE0005B685360064B00229A60039B002B01D108
:108AF000FFF7A2FF0023184605B05DF804FB00BF96
:108B00007032002000E100E000B583B0019000F079
:108B10002BF80346012B03D00549432006F0F4FE51
:108B20000198FFF78DFF00BF03B05DF804FB00BFA5
:108B30004C4B030000B583B003468DF8073000F0BE
:108B400013F80346012B03D00649512006F0DCFE42
:108B50009DF807301846FFF7ADFF00BF03B05DF882
:108B600004FB00BF4C4B030084B0EFF3058301937B
:108B7000019BC3F308030393039B002B0DD1EFF379
:108B800014830093009B0293029B03F00103002BCC
:108B90000CBF01230023DBB200E00123184604B020
:108BA0007047000082B003468DF807309DF907300A
:108BB000002B0CDB9DF8073003F01F0205499DF9DF
:108BC00007305B09012000FA02F241F8232000BFC0
:108BD00002B0704700E100E082B003468DF8073034
:108BE0009DF90730002B0DDB9DF8073003F01F02C5
:108BF00006499DF907305B09012000FA02F2403373
:108C000041F8232000BF02B0704700BF00E100E040
:108C100082B0034600918DF807309DF90730002B94
:108C20000ADB009BDAB20C499DF907305201D2B23F
:108C30000B4483F800230BE0009BDAB207499DF850
:108C4000073003F00F03043B5201D2B20B441A76F3
:108C500000BF02B0704700BF00E100E000ED00E09F
:108C600000B583B003460A468DF8073013468DF8E9
:108C700006309DF80630012B03D99DF80630032BF2
:108C80000BD99DF80630042B03D99DF80630072B2D
:108C900003D908496B2006F037FE9DF806209DF9A0
:108CA000073011461846FFF7B3FF00BF03B05DF869
:108CB00004FB00BF9C4B030000B583B003468DF856
:108CC00007309DF907301846FFF76CFF00BF03B06F
:108CD0005DF804FB00B585B00190019B002B0AD024
:108CE000074B43F001030393019B9B010293039BFA
:108CF0000298984700E000BF05B05DF804FB00BF94
:108D0000B04C030084B0039002910192039B029A3D
:108D100002F5A872019943F8221000BF04B0704711
:108D200082B001900091019B009A02F5A87253F85D
:108D30002230184602B0704782B001900091019B2A
:108D4000009AC3F8042300BF02B0704782B00190BC
:108D50000091019B009AC3F8082300BF02B070473E
:108D600082B001900B46ADF80230BDF80230019A96
:108D700013441B68184602B0704784B001900B463C
:108D8000ADF80230BDF80230019A134400221A6097
:108D9000BDF80230019A13441B680393039B00BF84
:108DA00004B0704782B00190019BD3F80435184697
:108DB00002B0704700B583B001900091009BB3F5FD
:108DC000805F04D306494FF4BE7006F09DFD019B01
:108DD000009AC3F8082500BF03B05DF804FB00BF8C
:108DE000D84B030082B001900B468DF803309DF8FC
:108DF0000320019B13441A460123136000BF02B0F5
:108E0000704782B001900091019B009AC3F84423FF
:108E100000BF02B0704782B001900091019B009AA0
:108E2000C3F8482300BF02B07047000000B587B008
:108E3000039002910192039B002B03D133495520EB
:108E400006F062FD029B002B03D13049562006F04C
:108E50005BFD019B002B03D12C49572006F054FDEC
:108E6000039B5B7919462A4A019B42F82130039BF8
:108E70005B79284ADB0013441B79002B0ED00823B2
:108E80000593254A254BD31ADB081B0443F0020344
:108E900023491846FDF708FF059B32E0039B1A683B
:108EA000029B1B8819461046FFF784FF039B93F92A
:108EB0000420029B9B7819461046FFF7D1FE039BC6
:108EC00093F904301846FFF7F7FE039B5B79114ACC
:108ED000DB00134401221A71039B5B7919460D4A8A
:108EE000039B42F83130002305930B4A0B4BD31AF6
:108EF000DB081B0443F003030A491846FDF7D4FEC0
:108F0000059B184607B05DF804FB00BF104C03003A
:108F10007C32002080320020444703000C470300CD
:108F2000584C03007C4C030000B583B00190019BBA
:108F3000002B03D10649872006F0E6FC019B1B6845
:108F400000211846FFF74EFF00BF03B05DF804FB99
:108F5000104C030000B583B00190019B002B03D19E
:108F600006498D2006F0D0FC019B1B6804211846A1
:108F7000FFF738FF00BF03B05DF804FB104C03009F
:108F800000B587B00390029101928DF80330039BE6
:108F9000002B03D12149962006F0B6FC4FF4803215
:108FA000029B02FA03F30593029B50339BB29B0092
:108FB000ADF81230019B23F07F430193039B1B68A4
:108FC00005991846FFF7C2FE039B1B6805991846D2
:108FD000FFF721FF039B1B68BDF8122011461846BE
:108FE000FFF7CBFE039B1B68019A02991846FFF717
:108FF00089FE039B1B6805991846FFF702FF9DF841
:109000000330002B05D0039B1B6805991846FFF71A
:1090100093FE00BF07B05DF804FB00BF104C0300D7
:1090200000B585B00390029113468DF80730039B7D
:10903000002B03D10B49A92006F066FC039B1B689B
:1090400002991846FFF7DDFE9DF80730002B05D08A
:10905000039B1B6802991846FFF76EFE00BF05B020
:109060005DF804FB104C030000B583B00190009143
:10907000019B002B03D10A49B32006F045FC019B5C
:109080001B6800991846FFF7C6FE019B1B680099F4
:109090001846FFF75BFE00BF03B05DF804FB00BF9E
:1090A000104C030000B583B001900B46ADF80230C0
:1090B000019B002B03D10F49BA2006F025FC019B30
:1090C0001B68BDF8022011461846FFF749FE03460B
:1090D000002B09D0019B1B68BDF8022011461846E1
:1090E000FFF74BFE012300E00023184603B05DF8B4
:1090F00004FB00BF104C030082B001900091019A64
:10910000009BD31A23F07F43184602B0704700003B
:1091100000B58BB00390029101920093039B002B4A
:1091200003D15749CD2006F0EFFB4FF48032029B6C
:1091300002FA03F30993029B50339BB29B00ADF8F4
:109140002230019B23F07F43019309990398FFF795
:109150008BFF039B1B681846FFF724FE0790039BB9
:109160001B6802991846FFF7DBFD0690039B1B68FE
:10917000079A02991846FFF7C5FD039B1B68BDF8C7
:10918000222011461846FFF7F8FD07990698FFF7C9
:10919000B3FF0346012B0AD11020FFF79BFD039B71
:1091A0001B68BDF8222011461846FFF7E6FD039B19
:1091B0001B681846FFF7F6FD079007990198FFF71F
:1091C0009BFF0590039B1B6809991846FFF719FE42
:1091D000059B012B15D1039B1868019B01331A468F
:1091E0000299FFF78FFD1020FFF774FD039B1B68AA
:1091F0001846FFF7D7FD0246079B934235D00D2353
:1092000039E0039B1B68019A02991846FFF77AFD23
:10921000039B1B681846FFF7C5FD0790019B013BA8
:1092200007991846FFF768FF0590009BC3F1FF13ED
:1092300003F57F43059A9A4201D90D231BE0059B54
:10924000002B12D1039B1868019B01331A46029927
:10925000FFF758FD039B1B681846FFF7A3FD024666
:10926000079B934201D00D2305E001220999039841
:10927000FFF7D6FE002318460BB05DF804FB00BFD5
:10928000104C030000B583B001900B468DF80330FD
:109290009DF803301A4602210198FFF7C1FE00BF76
:1092A00003B05DF804FB00B583B001904FF4827108
:1092B0000198FFF7F7FE0346184603B05DF804FB7C
:1092C00000B583B0019000914FF48032009B02FA08
:1092D00003F319460198FFF7C7FE00BF03B05DF81E
:1092E00004FB00B585B001900091009B50339BB208
:1092F0009B00ADF80E30BDF80E3019460198FFF70F
:10930000D1FE0346184605B05DF804FB00B583B0F6
:1093100001900091019B1B6800991846FFF700FD22
:109320000346184603B05DF804FB00B583B0019016
:10933000019B1B681846FFF735FD0346184603B02E
:109340005DF804FB00B583B00190019B93F90430F4
:109350001846FFF741FC00BF03B05DF804FB0000B6
:1093600008B5044B1B68044A12681046984700BFB2
:1093700008BD00BF7C3200208032002086B0019002
:109380000091019B53E8011F8AB2D8890244988951
:10939000824228BF121A1889824202BFBFF32F8F60
:1093A000002307E0C2EA010243E801200028E9D1D6
:1093B0004FF001038DF80F30059002910492029A4C
:1093C000009B1A609DF80F30DBB2184606B070475C
:1093D00084B00190019951E8013FC3EA034341E899
:1093E0000132002AF7D10392029300BF04B0704704
:1093F00086B001900091019B53E8021F1FFAA1F271
:10940000D888824202BFBFF32F8F00230DE0D88996
:1094100002449889824228BF121AC1EA024243E8F4
:1094200002200028E8D14FF001038DF80F3005909D
:1094300002910492029A009B1A609DF80F30DBB2F1
:10944000184606B0704784B00190019951E8023F78
:10945000C3EA234341E80232002AF7D10392029380
:1094600000BF04B0704786B00190019B53E8021F13
:10947000DA88B1EB314F4FF0000017BF89B242EAF2
:10948000024241EA024204E05968B1EB314F08BFA1
:10949000012043E802210029E8D18DF80F00059151
:1094A00004929DF80F30DBB2184606B0704784B0C6
:1094B0000390029111461A460B46ADF8063013464A
:1094C000ADF80430029B002B01D10E231FE0BDF844
:1094D0000630BDF80420B3FBF2F101FB02F29B1A47
:1094E0009BB2002B01D0092311E0039B029A1A6062
:1094F000039B00225A60039B00229A60039BBDF8E5
:1095000006209A81039BBDF80420DA8100231846C7
:1095100004B0704700B585B001900198FFF7A3FF34
:1095200003468DF80F309DF80F30002B01D000233B
:1095300000E01123184605B05DF804FB00B585B0C6
:1095400001900091009B19460198FFF717FF034611
:10955000002B07D0019B1B68009A128813440393C9
:10956000039B00E00023184605B05DF804FB00B53E
:1095700083B001900091009B1A88009B5B889A42FF
:1095800004D10198FFF724FF012300E000231846CF
:1095900003B05DF804FB00B585B001900091009B1D
:1095A00019460198FFF724FF0346002B07D0019BC3
:1095B0001B68009A528813440393039B00E0002326
:1095C000184605B05DF804FB00B583B0019000912A
:1095D000009B1A88009B5B889A4204D10198FFF790
:1095E00032FF012300E00023184603B05DF804FBBE
:1095F00000B585B001900091009B5B099B00019A2A
:109600001A44009B03F01F03012101FA03F31946DA
:10961000104600F065F8039000BF05B05DF804FB4C
:1096200000B585B001900091009B5B099B00019AF9
:109630001A44009B03F01F03012101FA03F3DB43EB
:109640001946104600F07CF8039000BF05B05DF8A5
:1096500004FB82B001900091009B5B099B00019A82
:1096600013441A68009B03F01F0322FA03F303F06C
:109670000103002B14BF01230023DBB2184602B004
:10968000704710B487B001900091019B009A53E895
:10969000004F104643E8000191F0000FF7D1059408
:1096A00004900391059B184607B05DF8044B704782
:1096B00010B487B001900091019B009A53E8004FCD
:1096C00044EA020043E8000191F0000FF6D105944E
:1096D00004900391059B184607B05DF8044B704752
:1096E00010B487B001900091019B009A53E8004F9D
:1096F00044EA020043E8000191F0000FF6D105941E
:1097000004900391049B184607B05DF8044B704722
:1097100010B487B001900091019B009A53E8004F6C
:1097200004EA020043E8000191F0000FF6D105942D
:1097300004900391059B184607B05DF8044B7047F1
:1097400010B487B001900091019B009A53E8004F3C
:1097500004EA020043E8000191F0000FF6D10594FD
:1097600004900391049B184607B05DF8044B7047C2
:1097700010B487B001900091019B009A53E8004F0C
:1097800004EB020043E8000191F0000FF6D10594CC
:1097900004900391049B184607B05DF8044B704792
:1097A00010B487B001900091019B009A53E8004FDC
:1097B000A4EB020043E8000191F0000FF6D10594FC
:1097C00004900391049B184607B05DF8044B704762
:1097D00000B583B0019001210198FFF769FF0346AE
:1097E000184603B05DF804FB00B583B00190012179
:1097F0000198FFF775FF0346184603B05DF804FBB8
:1098000000B583B0019000210198FFF781FF034666
:10981000184603B05DF804FB00B583B001900B4619
:109820008DF80330019B002B03D10849E82006F096
:109830006BF8019BDA689DF803300199098A01FBF6
:1098400003F31344184603B05DF804FBB84C03005F
:1098500000B583B001900091019B002B03D1084912
:10986000F52006F051F8009B019AD2689B1A019AE4
:10987000128AB3FBF2F3DBB2184603B05DF804FBC7
:10988000B84C030000B585B00190019B002B01D1BD
:109890000E234CE0019B1B68002B03D12649FF20BF
:1098A00006F032F8019B5B68002B04D122494FF48B
:1098B000807006F029F8019B9B68002B04D11E499B
:1098C00040F2011006F020F8019BDB68002B04D168
:1098D00019494FF4817006F017F8019B1B8A002B81
:1098E00004D1154940F2031006F00EF8019B9A6866
:1098F000019B5B68D31A8DF80F30019B1B68019A9E
:1099000052681A6007E0019B1A681368591C1160BD
:109910009DF80F201A709DF80F305A1E8DF80F20F9
:10992000002BF0D1019B1B6800221A7100231846FE
:1099300005B05DF804FB00BFB84C030000B585B06E
:109940000190019B002B04D11F494FF4927005F048
:10995000DBFF0023039300238DF80A300DF10A0387
:109960001846FFF7D1F8019B1B681A68019B5B68DA
:109970009A421FD9019B1B681A68013A1A601B683A
:109980001B7819460198FFF747FF0390019B9A68DF
:10999000019B1B681B68D31A8DF80B30019B1B6859
:1099A0001B799DF80B209A4204D9019B1B689DF8F6
:1099B0000B201A719DF80A301846FFF7BBF8039B7D
:1099C000184605B05DF804FBB84C030010B584B030
:1099D00001900091019B002B04D1154940F24710E2
:1099E00005F092FF009B002B04D111494FF4A470A5
:1099F00005F08AFF009B039300238DF80B300DF1D7
:109A00000B031846FFF780F8019B1B681C68621C5B
:109A10001A6003990198FFF71BFF034623709DF816
:109A20000B301846FFF786F800BF04B010BD00BF2A
:109A3000B84C030000B583B00190019B002B03D10B
:109A40000C49312005F060FF019B9B68002B0CD076
:109A5000019B5B69019A1069019A1168019A9268E9
:109A60009847019B00229A6000E000BF03B05DF8B8
:109A700004FB00BF044D03000EB400B584B0019098
:109A8000019B002B03D11849422005F03DFF019BAB
:109A90005B69002B03D11449432005F035FF019B7E
:109AA0001B68002B03D11049442005F02DFF019BBA
:109AB0005B68002B03D10C49452005F025FF059B71
:109AC000002B0AD00023039306AB039303AB1A4683
:109AD0000599019800F0B8F900E000BF04B05DF806
:109AE00004EB03B0704700BF044D030000B583B022
:109AF00001900B468DF803309DF803300A2B03D1FB
:109B00000D210198FFF7F2FF019B1A68019B9B68EA
:109B1000581C0199886013449DF803201A70019B1A
:109B20009A68019B5B689A4202D30198FFF782FF13
:109B300000BF03B05DF804FB00B587B0039002914D
:109B40000192009300230593009B03F00103002B77
:109B500024D00BE0029B01330293059B0133059354
:109B60009DF8133019460398FFF7C0FF029B1B783E
:109B70008DF813309DF81330002BEBD106E0019BDC
:109B8000013B019320210398FFF7B0FF019A059B49
:109B90009A422ED9019B002BF1D12AE0029B002B87
:109BA0000BD002980AF039FD059006E0019B013BBD
:109BB000019320210398FFF799FF019A059B9A4290
:109BC0000FD9019B002BF1D10BE0029B01330293D3
:109BD000059B013305939DF8133019460398FFF751
:109BE00085FF029B1B788DF813309DF81330002BF6
:109BF000EBD100BF07B05DF804FB000000B589B0F1
:109C00000390029101920093029B07930123069314
:109C100007E0079A019BB2FBF3F30793069B01331E
:109C20000693079A019B9A42F3D2009A069B9A42A6
:109C300001D9009B06930B9B03F00103002B22D15B
:109C40000A9B002B1FD00B9B03F00203002B06D0B6
:109C5000009B002B03D130238DF8173002E0202326
:109C60008DF8173008E00A9B013B0A939DF81730E6
:109C700019460398FFF73AFF0A9B002B03D0069A78
:109C80000A9B9A42EFD301230793009B012B03D930
:109C9000009B013B009309E0029A079BB2FBF3F3A0
:109CA0000493049A019B9A4200D205E0079B019A13
:109CB00002FB03F30793E8E7029A079BB2FBF3F377
:109CC0000493049B079A02FB03F3029AD31A0293AC
:109CD000154A049B13441B7819460398FFF706FFA7
:109CE000079A019BB2FBF3F30793079B002BE3D189
:109CF0000B9B03F00103002B11D00A9B002B0ED00D
:109D000006E00A9B013B0A9320210398FFF7EEFE31
:109D10000A9B002B03D0069A0A9B9A42F1D300BFFC
:109D200009B05DF804FB00BF904D030000B589B099
:109D30000590049103920293049B002BB8BF5B42F1
:109D400006930123079307E0039B069A92FBF3F324
:109D50000693079B01330793039B069A9A42F3DA13
:109D6000029A079B9A4201D9029B07930A9B002BF8
:109D70000AD0049B002B04DB0B9B03F00403002B95
:109D800002D00A9B013B0A930B9B03F00203002BBA
:109D900002D0029B002B16D00B9B03F00103002B7B
:109DA00011D10A9B002B0ED006E00A9B013B0A93BF
:109DB00020210598FFF79AFE0A9B002B03D0079AF3
:109DC0000A9B9A42F1D3049B002B07DA049B5B4267
:109DD00004932D210598FFF789FE08E00B9B03F003
:109DE0000403002B03D02B210598FFF77FFE0B9B6C
:109DF00003F00203002B19D00B9B03F00103002B8F
:109E000014D1029B002B11D10A9B002B0ED006E02F
:109E10000A9B013B0A9330210598FFF767FE0A9BD6
:109E2000002B03D0079A0A9B9A42F1D304990B9B0B
:109E300001930A9B0093029B039A0598FFF7DEFEAD
:109E400000BF09B05DF804FB00B58FB00590049128
:109E50000392059B002B04D1AD4940F2522005F03E
:109E600053FD059B5B69002B04D1A9494FF4157084
:109E700005F04AFD059B1B68002B04D1A44940F264
:109E8000552005F041FD059B5B68002B04D1A049DE
:109E900040F2562005F038FD049B002B00F0938122
:109EA000049B1B788DF83730049B013304939DF895
:109EB0003730002B00F07E819DF83730252B40F0A5
:109EC0006D8100230A9301230C93049B1B788DF86A
:109ED00037309DF83730302B0DD0302B1BDC2B2B3F
:109EE00011D02D2B17D10A9B43F001030A93049B39
:109EF0000133049312E00A9B43F002030A93049B8C
:109F0000013304930AE00A9B43F004030A93049B81
:109F10000133049302E000230C9300BF0C9B002B41
:109F2000D3D1002309939DF837302A2B0CD1039B02
:109F30001B68191D039A11601B68099A1344099341
:109F4000049B013304931AE0049B1B788DF837308F
:109F50009DF837302F2B12D99DF83730392B0ED87A
:109F6000049B01330493099A13469B0013445B003E
:109F70001A469DF837301344303B0993D3E700234A
:109F80000B93049B1B788DF837309DF837302E2BC0
:109F90001DD1049B01330493049B1B788DF837304B
:109FA0009DF837302F2B12D99DF83730392B0ED82A
:109FB000049B013304930B9A13469B0013445B00EC
:109FC0001A469DF837301344303B0B93E4E7049B6B
:109FD0001B788DF837309DF837306C2B03D09DF807
:109FE0003730682B07D1049B01330493049B1B7803
:109FF0008DF83730EFE79DF83730252B00F0C4801F
:10A00000252BC0F2C680782B00F3C380582BC0F2FA
:10A01000C080583B202B00F2BC8001A252F823F0F4
:10A0200015A1020093A1020093A1020093A10200D6
:10A0300093A1020093A1020093A1020093A1020048
:10A0400093A1020093A1020093A10200A5A0020027
:10A05000C7A0020093A1020093A1020093A10200F5
:10A0600093A10200C7A0020093A1020093A10200E5
:10A0700093A1020093A1020093A1020093A1020008
:10A0800055A1020093A1020093A1020039A1020090
:10A0900093A10200EBA0020093A1020093A1020091
:10A0A00015A10200039B1B68191D039A11601B6810
:10A0B0000C930C9B8DF81F309DF81F3019460598A6
:10A0C000FFF714FD66E0039B1B68191D039A1160DE
:10A0D0001B680C930A9B0193099B00930B9B0A221C
:10A0E0000C990598FFF722FE54E0039B1B68191D8D
:10A0F000039A11601B680C930C990A9B0193099BAE
:10A1000000930B9B0A220598FFF778FD42E000BF01
:10A11000484D0300039B1B68191D039A11601B68BF
:10A120000C930C990A9B0193099B00930B9B1022A3
:10A130000598FFF763FD2DE0039B1B68191D039A2B
:10A1400011601B6808930A9B099A08990598FFF704
:10A15000F3FC1FE0039B1B68191D039A11601B6829
:10A160000C9330210598FFF7C1FC78210598FFF783
:10A17000BDFC0C99002301930823009308231022AF
:10A180000598FFF73BFD05E025210598FFF7AEFC9C
:10A1900000E000BF049B0133049305E09DF83730D5
:10A1A00019460598FFF7A2FC049B1B78002B7FF44F
:10A1B00077AE00E000BF059B1B7B002B04D0059809
:10A1C000FFF738FC00E000BF0FB05DF804FB00BFF4
:10A1D00000B583B001900198FFF754FB0346184681
:10A1E00003B05DF804FB00B58BB001900091019BBA
:10A1F0001B8A043B0793009A079B1344DA1C079BB6
:10A20000B2FBF3F38DF81B300198FFF797FB059035
:10A21000059B002B01D1002338E0059B00221A7119
:10A22000059B01225A71079B9AB2059BDA80059B18
:10A2300009939DF81B30013B0493099B019A1A6016
:10A24000002308931DE00198FFF778FB0390039B20
:10A25000002B0ED0059B5B790133DAB2059B5A7156
:10A26000099B039A1A60039B019A1A60039B099346
:10A2700004E0059800F00EF8002307E0089B013386
:10A280000893089A049B9A42DDD3059B18460BB0AD
:10A290005DF804FB00B58BB00190019B0793079B11
:10A2A0005B798DF81B30019B08939DF81B30013BB7
:10A2B00005930023099305E0089B1B680893099BFD
:10A2C00001330993099A059B9A42F5D3089B1B68B1
:10A2D0000493019B0893002309930BE0089B1B68E0
:10A2E000039308990498FFF771FB039B0893099B5C
:10A2F000013309939DF81B30099A9A42EED300BFAF
:10A3000000BF0BB05DF804FB00B585B00190019B68
:10A310000393039B043301211846FFF729FA00BF7A
:10A3200005B05DF804FB00B587B00190019B059373
:10A33000059B043301211846FFF732FA03460393C5
:10A3400003AB0493049B1B78002B02D10198FFF709
:10A35000A1FF00BF07B05DF804FB000000B591B09D
:10A360000390029101920093039B002B03D1434978
:10A37000B62005F0C9FA039B0993039B0F93099B31
:10A38000DB881A46099B5B7902FB03F3043B0893C5
:10A39000009A089B9A4203D33849C42005F0B4FAC6
:10A3A000099BDB880793009B1A1D079BB2FBF3F305
:10A3B0000E93009B0433079AB3FBF2F2079901FB5B
:10A3C00002F29B1A0D93019B1A68009B1344089A92
:10A3D0009A4203D2089A009BD31A01E0019B1B68A2
:10A3E0000C93019B0C9A1A6005E00F9B1B680F935E
:10A3F0000E9B013B0E930E9B002BF6D100230B937B
:10A40000079A0D9BD31A0A930A9A0C9B934228BF72
:10A4100013460A932AE0029A0B9B134406930F9A61
:10A420000D9B1344043305939DF84830002B05D051
:10A430000A9A059906980AF094F804E00A9A06998F
:10A4400005980AF08EF800230D930F9B1B680F935D
:10A450000C9A0A9BD31A0C930B9A0A9B13440B93E6
:10A46000079A0C9B934228BF13460A930C9B002B20
:10A47000D1D100BF00BF11B05DF804FBA04D0300B7
:10A4800000B589B00590049103920293039B079352
:10A4900007AA00230093029B04990598FFF75EFF2B
:10A4A000079B039A9A4203D00349F62005F02CFA41
:10A4B00000BF09B05DF804FBA04D030000B589B0F2
:10A4C0000590049103920293039B079307AA01232B
:10A4D0000093029B04990598FFF740FF079B039A9E
:10A4E0009A4204D004494FF4807005F00DFA00BF81
:10A4F00009B05DF804FB00BFA04D030082B0034625
:10A500008DF807309DF90730002B0DDB9DF80730E3
:10A5100003F01F0206499DF907305B09012000FA8C
:10A5200002F2603341F8232000BF02B0704700BF41
:10A5300000E100E000B583B00190019B002B03D146
:10A540000649722005F0E0F9019B00221A60BFF372
:10A550005F8F00BF00BF03B05DF804FB4C4E0300EB
:10A5600041DF704700BF184600B585B000238DF865
:10A5700007300DF107031846FEF7C6FAF1EE103A60
:10A580000393039B23F09F030293029BE1EE103A97
:10A5900000BFBFF35F8F00BF2620FFF7AFFF9DF81E
:10A5A00007301846FEF7C6FA039B03F00703002B9B
:10A5B00003D004497D2005F0A7F900BF05B05DF880
:10A5C00004FB00BF9C4E030008B5064B00221A7026
:10A5D0000548FFF7AFFF0549054800F04BF8002399
:10A5E000184608BD8C32002088320020EC4E030053
:10A5F0009032002000B583B0FFF7B6FF09F044FCAD
:10A600000346002B0ED0FFF7ABFF0190019B002B00
:10A610000BD0019B022B08D006494FF4B07005F017
:10A6200073F902E020BF40BF20BF00BF03B05DF858
:10A6300004FB00BF9C4E030082B00190019B9B680D
:10A6400000229A60019B9B6800221A61019B9B6813
:10A6500000225A61019B9B680022DA60019B9B6883
:10A6600000225A60019B9B6800221A6000BF02B062
:10A670007047000000B583B001900091019B002B52
:10A6800003D11049502005F03FF9009B002B03D166
:10A690000C49512005F038F9019B009A1A60019B82
:10A6A0001B681A68019B5A60019B5A68019B1B68D2
:10A6B0005B689A4202D1019B00225A6000BF03B03E
:10A6C0005DF804FBF84E030000B583B00190019BD8
:10A6D000002B03D11449632005F016F9019B1B6878
:10A6E000002B03D11049642005F00EF9019B5B6833
:10A6F000002B14D0019B5B681A46019B1B689B686A
:10A7000013441A46019B5A60019B5A68019B1B68BF
:10A710005B689A4204D1019B00225A6000E000BFAE
:10A7200003B05DF804FB00BFF84E030000B585B030
:10A7300001900091019B002B03D118493A2005F0AC
:10A74000E3F8009B002B03D114493B2005F0DCF813
:10A75000019B5B6803930FE0019B9B68039A12685F
:10A76000009910469847034683F00103DBB2002BA3
:10A7700007D1039B1B680393039B1B68002BEBD142
:10A7800000E000BF039B1A68009B1A60039B009ABD
:10A790001A6000BF05B05DF804FB00BF684F0300FE
:10A7A00000B585B00190019B002B03D10C495120CD
:10A7B00005F0AAF8019B5B681B680393019B5B682B
:10A7C0001B68002B06D0019B5B681A68019B5B68C5
:10A7D00012681A60039B184605B05DF804FB00BFC1
:10A7E000684F030000B583B00190019B002B03D19B
:10A7F00005495D2005F088F8019B5B681B681846D9
:10A8000003B05DF804FB00BF684F030000B585B0DE
:10A8100001900091019B002B03D11649692005F09E
:10A8200073F8009B002B03D112496A2005F06CF8E5
:10A8300000238DF80B30019B5B6803930FE0039BB3
:10A840001B68009A9A4207D1009B1A68039B1A6002
:10A8500001238DF80B3006E0039B1B680393039BD9
:10A860001B68002BEBD19DF80B30184605B05DF846
:10A8700004FB00BF684F030000B585B0019001984C
:10A8800000F00EF80390039B002B01D0039B00E027
:10A89000024B184605B05DF804FB00BFB84F03003B
:10A8A00086B00190164B0593164B04931FE0049A53
:10A8B000059BD31ADB10DA0F13445B10DB00059AFB
:10A8C00013440393039B1B680293029A019B9A42D1
:10A8D00002D9039B04930AE0029A019B9A4203D295
:10A8E000039B0833059302E0039B5B6804E0059A31
:10A8F000049B9A42DBD30023184606B0704700BF82
:10A90000B8530300E054030000B583B001900091F8
:10A91000019BDBB21846FEF753F8019B184603B0C3
:10A920005DF804FBBFF34F8F00BF064BDB6803F4F9
:10A93000E0620449044B1343CB60BFF34F8F00BF69
:10A9400000BFFDE700ED00E00400FA0582B01B4BFC
:10A950001B68B3F1FF3F0AD1194B1B68DBB20193AF
:10A96000184B1B681B0903F00F03009305E0134B02
:10A970001B680193144B1B680093019B062B19D194
:10A98000009B033B032B13D801A252F823F000BF16
:10A99000A1A90200A5A90200A9A90200ADA902006F
:10A9A000012308E0012306E0012304E0012302E083
:10A9B000012300E00023184602B070473001001068
:10A9C000E00F00F0E80F00F03401001082B0154BEA
:10A9D0001B68DBB20193144B1B681B0903F00F03C8
:10A9E0000093019B062B19D1009B033B032B13D82B
:10A9F00001A252F823F000BF09AA02000DAA02002A
:10AA000011AA020015AA0200012308E0002306E0B3
:10AA1000002304E0002302E0002300E000231846A6
:10AA200002B07047E00F00F0E80F00F082B01B4B5F
:10AA30001B68B3F1FF3F0AD1194B1B68DBB20193CE
:10AA4000184B1B681B0903F00F03009305E0134B21
:10AA50001B680193144B1B680093019B062B19D1B3
:10AA6000009B033B032B13D801A252F823F000BF35
:10AA700081AA020085AA020089AA02008DAA02000A
:10AA8000012308E0012306E0012304E0012302E0A2
:10AA9000012300E00023184602B070473001001087
:10AAA000E00F00F0E80F00F03401001082B0154B09
:10AAB0001B68DBB20193144B1B681B0903F00F03E7
:10AAC0000093019B062B19D1009B033B032B13D84A
:10AAD00001A252F823F000BFE9AA0200EDAA020089
:10AAE000F1AA0200F5AA0200012308E0002306E013
:10AAF000002304E0002302E0002300E000231846C6
:10AB000002B07047E00F00F0E80F00F082B01B4B7E
:10AB10001B68B3F1FF3F0AD1194B1B68DBB20193ED
:10AB2000184B1B681B0903F00F03009305E0134B40
:10AB30001B680193144B1B680093019B062B19D1D2
:10AB4000009B033B032B13D801A252F823F000BF54
:10AB500061AB020065AB020069AB02006DAB0200A5
:10AB6000012308E0012306E0012304E0012302E0C1
:10AB7000012300E00023184602B0704730010010A6
:10AB8000E00F00F0E80F00F03401001082B0154B28
:10AB90001B68DBB20193144B1B681B0903F00F0306
:10ABA0000093019B062B19D1009B033B032B13D869
:10ABB00001A252F823F000BFC9AB0200CDAB0200E6
:10ABC000D1AB0200D5AB0200012308E0002306E070
:10ABD000002304E0002302E0002300E000231846E5
:10ABE00002B07047E00F00F0E80F00F082B0154BA4
:10ABF0001B68DBB20193144B1B681B0903F00F03A6
:10AC00000093019B062B19D1009B033B032B13D808
:10AC100001A252F823F000BF29AC02002DAC0200C3
:10AC200031AC020035AC0200012308E0002306E04D
:10AC3000002304E0002302E0002300E00023184684
:10AC400002B07047E00F00F0E80F00F082B01B4B3D
:10AC50001B68B3F1FF3F0AD1194B1B68DBB20193AC
:10AC6000184B1B681B0903F00F03009305E0134BFF
:10AC70001B680193144B1B680093019B062B19D191
:10AC8000009B033B032B13D801A252F823F000BF13
:10AC9000A1AC0200A5AC0200A9AC0200ADAC020060
:10ACA000002308E0002306E0012304E0012302E082
:10ACB000012300E00023184602B070473001001065
:10ACC000E00F00F0E80F00F03401001082B01B4BE1
:10ACD0001B68B3F1FF3F0AD1194B1B68DBB201932C
:10ACE000184B1B681B0903F00F03009305E0134B7F
:10ACF0001B680193144B1B680093019B062B19D111
:10AD0000009B033B032B13D801A252F823F000BF92
:10AD100021AD020025AD020029AD02002DAD0200DB
:10AD2000012308E0012306E0012304E0012302E0FF
:10AD3000012300E00023184602B0704730010010E4
:10AD4000E00F00F0E80F00F03401001082B01B4B60
:10AD50001B68B3F1FF3F0AD1194B1B68DBB20193AB
:10AD6000184B1B681B0903F00F03009305E0134BFE
:10AD70001B680193144B1B680093019B062B19D190
:10AD8000009B033B032B13D801A252F823F000BF12
:10AD9000A1AD0200A5AD0200A9AD0200ADAD02005B
:10ADA000012308E0012306E0012304E0012302E07F
:10ADB000012300E00023184602B070473001001064
:10ADC000E00F00F0E80F00F03401001082B0134BE8
:10ADD0001B680193124B1B680093019B062B19D132
:10ADE000009B033B032B13D801A252F823F000BFB2
:10ADF00001AE020005AE020009AE02000DAE020077
:10AE0000002308E0002306E0002304E0012302E021
:10AE1000012300E00023184602B070473001001003
:10AE200034010010024B034A1A6000BF704700BF94
:10AE30004C2B00200090D00308B5FFF787FD034698
:10AE4000002B06D0A04B1B681B0AA04A03F01F036F
:10AE50001360FFF7BBFD0346002B02D09C4B9D4ABD
:10AE60001A60FFF7E3FD0346002B06D09A4B1B68E0
:10AE70005B0B9A4A03F007031360FFF717FE0346C4
:10AE8000002B05D0964BDB68954A23F08073D36086
:10AE9000FFF73CFE0346002B0ED04FF0804300220C
:10AEA000C3F80C214FF080430022C3F810214FF06B
:10AEB00080430022C3F83825FFF768FE0346002BC5
:10AEC00002D0884B03221A60FFF790FE0346002B46
:10AED0000BD0854B05221A60844B01221A60844BEB
:10AEE00000221A60834B3F221A60FFF7AFFE034631
:10AEF000002B76D04FF080537F4AD3F80434C2F849
:10AF000020354FF080537C4AD3F80834C2F82435FA
:10AF10004FF08053784AD3F80C34C2F828354FF0FC
:10AF20008053754AD3F81034C2F82C354FF0805353
:10AF3000714AD3F81434C2F830354FF080536E4A5A
:10AF4000D3F81834C2F834354FF080536A4AD3F836
:10AF50001C34C2F840354FF08053674AD3F8203490
:10AF6000C2F844354FF08053634AD3F82434C2F812
:10AF700048354FF08053604AD3F82834C2F84C3536
:10AF80004FF080535C4AD3F82C34C2F850354FF060
:10AF90008053594AD3F83034C2F854354FF08053B7
:10AFA000554AD3F83434C2F860354FF08053524AD2
:10AFB000D3F83834C2F864354FF080534E4AD3F892
:10AFC0003C34C2F868354FF080534B4AD3F84034D4
:10AFD000C2F86C354FF08053474AD3F84434C2F876
:10AFE0007035FFF773FE0346002B05D0434B1B68FB
:10AFF000434A03F04F031360FFF7A8FE0346002BFC
:10B000000DD04FF08043D3F8003403F00103002B40
:10B0100005D04FF080436FF00102C3F80024FFF722
:10B02000D5FE0346002B05D0364B1B68354A43F44A
:10B0300080631360344BD3F88830334A43F4700391
:10B04000C2F88830BFF34F8F00BFBFF36F8F00BFD0
:10B050004FF01023D3F80032002B05DB4FF0102304
:10B06000D3F80432002B2BDA284B0122C3F8042535
:10B0700000BF264BD3F80034002BFAD04FF010233A
:10B080001522C3F8002200BF204BD3F80034002B58
:10B09000FAD04FF010231522C3F8042200BF1B4B37
:10B0A000D3F80034002BFAD0184B0022C3F8042543
:10B0B00000BF164BD3F80034002BFAD0FFF732FC58
:10B0C000FFF7B0FE00BF08BD24030010403501406B
:10B0D00074C007400DF0ADBA440200103C050040BA
:10B0E000F0ED00E0A00500401056004088560040FA
:10B0F000185600401456004000C00040580200108E
:10B10000E40E00403C17004000ED00E000E001408C
:10B1100000B583B00190019B1B68184600F011F93F
:10B120000346002B04D105494FF4F67004F0ECFB04
:10B130004FF0A043184603B05DF804FBE054030051
:10B1400000B585B00190084611461A4603468DF8B1
:10B1500003300B468DF8023013468DF8013001ABF9
:10B160001846FFF7D5FF03909DF803209DF80230A5
:10B170005B001A439DF801309B001A439DF818307C
:10B180001B0242EA03019DF81C301B04019A19437B
:10B19000039B02F5E07243F8221000BF05B05DF892
:10B1A00004FB00B585B003900023019300230093B6
:10B1B0000023012201210398FFF7C2FF00BF05B061
:10B1C0005DF804FB00B585B003900B468DF80B309D
:10B1D0009DF80B30002201920022009200220021F3
:10B1E0000398FFF7ADFF00BF05B05DF804FB00B5A5
:10B1F00085B0019001AB1846FFF78AFF0390019BD1
:10B20000012202FA03F31946039800F086F800BF02
:10B2100005B05DF804FB00B585B0019001AB1846A0
:10B22000FFF776FF0390019B012202FA03F3194610
:10B23000039800F07CF800BF05B05DF804FB00B592
:10B2400085B0019001AB1846FFF762FF0390039BA6
:10B25000D3F804350293029BDA43019B012101FAE2
:10B2600003F31A40039BC3F80825019B01229A406F
:10B27000029B1A40039BC3F80C2500BF05B05DF884
:10B2800004FB00B583B001900091009B002B03D11B
:10B290000198FFF7C0FF02E00198FFF7A8FF00BF89
:10B2A00003B05DF804FB00B585B0019001AB184612
:10B2B000FFF72EFF0390039800F01FF80246019B52
:10B2C00022FA03F303F00103184605B05DF804FB0E
:10B2D00000B585B0019001AB1846FFF719FF039048
:10B2E000039800F012F80246019B22FA03F303F0E0
:10B2F0000103184605B05DF804FB82B00190019B84
:10B30000D3F81035184602B0704782B00190019B07
:10B31000D3F80435184602B0704782B0019000910E
:10B32000019B009AC3F8082500BF02B0704782B0A5
:10B3300001900091019B009AC3F80C2500BF02B058
:10B34000704784B00190019B5B0902930023039333
:10B35000029B002B03D14FF0FF33039300BF019BEF
:10B3600003F01F030193039A019B22FA03F303F0F6
:10B370000103002B14BF01230023DBB2184604B0E5
:10B380007047000000B585B00190019B032B03D9E5
:10B3900011493A2004F0B8FA104A019B13441B7873
:10B3A0001846FFF795FF0346002B14BF0123002327
:10B3B0008DF80F309DF80F30002B14BF01230023B0
:10B3C000DBB283F00103DBB203F00103DBB218460A
:10B3D00005B05DF804FB00BF185503005855030085
:10B3E00000B583B00190019B032B03D9074941208D
:10B3F00004F08AFA064A019B13441B780021184680
:10B40000FFF73FFF00BF03B05DF804FB18550300D2
:10B410005855030000B583B00190019B032B03D95D
:10B420000749472004F070FA064A019B13441B7831
:10B4300001211846FFF725FF00BF03B05DF804FBAC
:10B44000185503005855030000B583B0002301933D
:10B4500005E00198FFF7DEFF019B01330193019B9B
:10B46000032BF6D900BF00BF03B05DF804FB00B5A5
:10B4700083B00023019305E00198FFF7B1FF019B22
:10B4800001330193019B032BF6D900BF00BF03B02A
:10B490005DF804FB00B583B00190019B032B03D939
:10B4A00007495F2004F030FA064A019B13441B78D9
:10B4B0001846FFF7C4FE00BF03B05DF804FB00BFF1
:10B4C000185503005855030000B583B000230193BD
:10B4D00009E0094A019B13441B781846FFF761FEF7
:10B4E000019B01330193019B032BF2D9FFF7ACFFC2
:10B4F00000BF03B05DF804FB5855030000B585B0EC
:10B500000190019B032B03D91149AC2004F0FCF9F5
:10B51000104A019B13441B781846FFF7C4FE0346EC
:10B52000002B14BF012300238DF80F309DF80F303E
:10B53000002B14BF01230023DBB283F00103DBB235
:10B5400003F00103DBB2184605B05DF804FB00BF51
:10B55000185503005C55030000B583B00023019328
:10B560000AE0094A019B13441B7803211846FFF7A0
:10B5700029FE019B01330193019B032BF1D900BFED
:10B5800000BF03B05DF804FB5C55030084B001907C
:10B590004FF0FF330293002303930DE00A4A039B0D
:10B5A00013441B781A46019B934202D1039B0293DA
:10B5B00005E0039B01330393039B032BEED9029B0E
:10B5C000184604B0704700BF5C55030000B583B057
:10B5D0000190019B032B03D90549CB2004F094F97A
:10B5E000044A019B13441B78184603B05DF804FB22
:10B5F000185503005C55030000B583B00190019B12
:10B6000003F00103002B01D0FFF75EFF019B03F065
:10B610000203002B01D0FFF79FFF00BF03B05DF8CE
:10B6200004FB000082B003468DF807309DF9073017
:10B63000002B13DB9DF8073003F01F0209499DF929
:10B6400007305B09012000FA02F2203341F8232081
:10B65000BFF34F8F00BFBFF36F8F00BF00BF02B0BB
:10B66000704700BF00E100E0044BD3F80034002B2A
:10B6700014BF01230023DBB21846704700000140CD
:10B6800008B508F001FC034683F00103DBB2002B90
:10B6900003D109497B2004F037F9FFF7E5FF0346A2
:10B6A00083F00103DBB2002B04D000F041FB034B1D
:10B6B00000229A7000BF08BD685503009832002030
:10B6C00000B583B000230193184B1B78002B02D0E8
:10B6D000852301931CE0154B00229A60134B002236
:10B6E0005A60124B00221A61104B0022DA60104897
:10B6F00000F0E4FA019008F0C7FB034683F0010371
:10B70000DBB2002B01D000F0FFFA084B01221A70C7
:10B71000FFF7AAFF0346002B02D0044B01229A70C8
:10B72000019B184603B05DF804FB00BF983200206F
:10B7300009B8020084B00190019B1B680393039B2E
:10B74000002B03D0039B1A68019B1A60039B1846C9
:10B7500004B0704700B583B0164B1B78002B04D1A2
:10B76000154940F2171004F0CFF8124BDB68002B9C
:10B7700004D111494FF48C7004F0C6F800238DF801
:10B7800007300DF107031846FDF7BEF9094BDB68DA
:10B79000013B084AD360074BDB68002B01D1FFF760
:10B7A0006FFF9DF807301846FDF7C4F900BF03B0DE
:10B7B0005DF804FB983200206855030000B585B0A1
:10B7C00003468DF807309DF80730002B02D10C4B53
:10B7D000039301E00B4B03930398FFF7ABFF029039
:10B7E000029B002B06D0029B5B689DF80720104649
:10B7F0009847F1E700BF00BF05B05DF804FB00BF4C
:10B80000A0320020A832002000B583B003468DF896
:10B8100007309DF80730002B05D10A4B01225A70E2
:10B820000020FFF7CBFF9DF80730012B05D1054B1A
:10B8300001229A700120FFF7C1FF00BF03B05DF83D
:10B8400004FB00BF9832002000B583B00190009146
:10B85000019B002B05D1054B01225A700020FFF7F8
:10B86000ADFF00BF03B05DF804FB00BF98320020BD
:10B8700000B585B0034600918DF807309DF807307C
:10B88000032B29D0032B35DC002B02D0012B04D055
:10B8900030E00020FFF7C6FE2DE000238DF80F30CA
:10B8A0000DF10F031846FDF72FF9154B1B7883F0A8
:10B8B0000103DBB2002B01D0FFF702FF104BDB6866
:10B8C00001330F4AD3600E4B01229A709DF80F305E
:10B8D0001846FDF72FF90EE0094B1B78002B04D119
:10B8E000084940F2522004F00FF800F00DFAFFF77B
:10B8F00031FF00E000BF00BF05B05DF804FB00BFF2
:10B90000983200206855030000B589B0019000917D
:10B91000009B0793019B1B788DF80C30019B5B68A3
:10B920000493019B9B68DBB28DF81430019BDB68AC
:10B930000693074A079B52F823300649079A51F8A5
:10B94000221003AA1046984700BF09B05DF804FB17
:10B95000AC320020B032002000B589B001900091D7
:10B96000009B0793019B1B788DF80C30019B5B6853
:10B970000493019B9B68DBB28DF81430019BDB685C
:10B980000693074A079B52F823300649079A51F855
:10B99000221003AA1046984700BF09B05DF804FBC7
:10B9A000AC320020B032002030B58FB0039002914D
:10B9B0000192039B1B780C9326490C9B019A41F83A
:10B9C0002320029B1A6924490C9B41F82320029BE7
:10B9D0005B7F1946214A0C9B13440A461A70029B4E
:10B9E00004AC1D460FCD0FC495E80F0084E80F008E
:10B9F0000C9B089300230D93039B1B781A46174B4F
:10BA00009B5C002B0DD0039B181D019B002B01D0CC
:10BA1000134A00E0002204AB194602F0F1F90D9040
:10BA200014E0039B1B781A460C4B9B5C002B0DD13A
:10BA3000039B03F10C00019B002B01D0094A00E09D
:10BA4000002204AB194601F037FB0D900D9B184600
:10BA50000FB030BDAC320020B0320020B432002034
:10BA600009B9020059B9020082B003468DF80730C7
:10BA70009DF90730002B0CDB9DF8073003F01F0207
:10BA800005499DF907305B09012000FA02F241F8EF
:10BA9000232000BF02B0704700E100E082B00346FF
:10BAA00000918DF807309DF90730002B0ADB009BD1
:10BAB000DAB20C499DF907305201D2B20B4483F837
:10BAC00000230BE0009BDAB207499DF8073003F032
:10BAD0000F03043B5201D2B20B441A7600BF02B0EE
