:020000022000DC
:1060000000000120756302005D6302005F6302000F
:106010006163020063630200656302000000000028
:1060200000000000000000000000000067630200A4
:1060300069630200000000006B6302006D630200F0
:10604000F58802006F630200F98C02006F630200A2
:106050006F6302006F630200AD8B02006F6302008A
:106060006F6302006F6302006F6302006F630200E0
:106070006F6302006F6302006F6302006F630200D0
:106080006F630200E97802006F6302006F63020031
:106090006F6302006F630200EDBF02006F630200D6
:1060A0006F6302006F6302006F6302006F630200A0
:1060B0006F6302006F630200000000000000000038
:1060C0006F6302006F6302006F6302006F63020080
:1060D0006F6302006F6302006F6302000000000044
:1060E00000000000000000000000000000000000B0
:1060F00000000000000000000000000000000000A0
:10610000000000000000000000000000000000008F
:10611000000000000000000000000000000000007F
:10612000000000000000000000000000000000006F
:10613000000000000000000000000000000000005F
:10614000000000000000000000000000000000004F
:10615000000000000000000000000000000000003F
:10616000000000000000000000000000000000002F
:10617000000000000000000000000000000000001F
:10618000000000000000000000000000000000000F
:1061900000000000000000000000000000000000FF
:1061A00000000000000000000000000000000000EF
:1061B00000000000000000000000000000000000DF
:1061C00000000000000000000000000000000000CF
:1061D00000000000000000000000000000000000BF
:1061E00000000000000000000000000000000000AF
:1061F000000000000000000000000000000000009F
:10620000354936480A1A02D0072291438D4634494F
:1062100034480A1A06D00722914381F309880222E2
:1062200082F3148830483149314A00F044F831484B
:106230003149324A00F03FF831483249324A00F0E1
:106240003AF832483249334A00F035F83248334997
:10625000334A00F030F833483349344A00F02BF821
:1062600033483449344A00F026F83448344900228F
:1062700000F02CF833483449002200F027F8334866
:106280003349091A082902DB002202604160314AC1
:1062900090471F481F49884205D00268043003B464
:1062A000904703BCF7E700208646EC46002000211B
:1062B000294A9047FEE7884207D0521A05D0037852
:1062C00001300B700131013AF9D17047884202D098
:1062D00002700130FAE770470000012000E0002062
:1062E000000001200000012070D80200EC2A0020EC
:1062F000542B0020D0630200D0630200DEC50200F0
:1063000070D80200EC2A0020EC2A002018C70200F6
:1063100018C7020018C7020018C7020018C70200F9
:1063200018C7020018C7020018C702006ED8020082
:10633000D8D80200542B0020542B0020542B0020CE
:1063400058610020586100205861002058610020E9
:10635000588100209D63020009A40200FEE7FEE7C9
:10636000FEE7FEE7FEE7FEE7FEE7FEE7FEE7FEE705
:1063700000F002B8FFF7FCBF0F484FF00701884359
:1063800085460E4880470E48016841F4700101605F
:10639000BFF34F8FBFF36F8FFFF732BF09480A4932
:1063A0000A4A884207D0521A05D0037801300B7090
:1063B0000131013AF9D1704700000120A5820200A5
:1063C00088ED00E004C70200D82A0020EC2A002053
:1063D0007047000007B5044B0093044A402300F0C7
:1063E00032F803B05DF804FBF1630200552B002086
:1063F0002DE9F84388461446B2B10F4B0F4E0325E2
:10640000002743F00109224608EB0701002004F0B1
:1064100065FA0744241A48B933782BB14FF47A400F
:10642000C847013D02D13570BDE8F88301233370C0
:10643000002CE8D1F8E700BF20C70200542B002051
:10644000704704F07BBAF0B595B01D461646084675
:106450000C4601F029FE1A9B0D93CDE90865002535
:106460002B46082205A920460A958DF82C500C953C
:1064700001F036FE079B0293069B03939DF81430B0
:106480008DF8115003F00302012A1DD1BDF814202C
:10649000059DC3F3C203C2F383168DF81030B2001A
:1064A00008230EA9204601F01BFEC5F3952508AB75
:1064B0000093324602AB0EA9284600F049FB204665
:1064C00001F0F6FD15B0F0BD022AF8D1BDF8165066
:1064D000C3F3C203C5F389158DF810300827082DC2
:1064E0002E4628BF08263B4632460EA9204601F01C
:1064F000F7FDAD1B08AB02AA31460EA8374400F0E9
:106500008BFB002DEBD1DAE708B5FFF79AFF0448C3
:10651000042100F087FA034B01225A7108BD00BF25
:10652000F4C60200EC2A0020037813F0040216D00F
:1065300003F00303012B03D0022B09D00120704785
:106540000A6800880232C0F3831002440A60F5E74B
:106550000B684288023303EB92130B60EEE71046A0
:10656000704700002DE9F04FDFF824A187B00F46F7
:1065700000230446861C0DF1070015468DF80730F0
:1065800001F044F8DAF804203A60DAF8083003F54C
:1065900000739B1A0AF61C070AF618090AF6140873
:1065A000B3421BD30020002D6ED004F00F039B01DB
:1065B00043F0050363F30F00DAF80430C3F3080275
:1065C000033233444AF822009DF80700CAF8043029
:1065D00001F040F8012007B0BDE8F08F01213846F6
:1065E00001F08DFA484601F0A5FA404601F0A2FA02
:1065F000DAF808000290C0F3080003300AEB8000CC
:1066000002A9FFF791FF029B40BBC3F308020AEB0C
:106610008202D16803919A1C0133C3F308030AEB89
:1066200083030292D3F80CB001F00303012B23D0B3
:10663000022B16D08346404601F07FFA10B1029B30
:10664000CAF808305946384601F059FADAF80830E5
:10665000DAF8042003F500739B1AA1E7C3F30800DE
:10666000CBE7BDF80E30C3F3891303334FEA1B4B5E
:1066700002EB93030293DEE7BDF80C30C3F3831300
:106680004FEA1B4B1344F5E7A40544F0060093E7DB
:10669000682C0020064B074810B500221A7001F044
:1066A000BCFC044610B9044801F064FD204610BD4E
:1066B000682C002058C602005CC7020030B50A4CA6
:1066C00071B10A4A0A49121BD20800239A4201D129
:1066D000002030BD31F82350854202D00133F5E768
:1066E000034654F83300F4E76CC60200F4C6020017
:1066F000EC2A0020094B013903EBC000032909D81B
:10670000DFE801F00A0204060420704700797047B0
:106710004079704700207047022070476CC6020025
:10672000034BD3E90130C31A58425841704700BFA8
:10673000682C00202DE9F04186B0FFF7F1FF0546F7
:10674000002840F0F3807A4CC4F81808BFF34F8F4C
:10675000A3680293C3F30803033304EB830002A985
:10676000FFF7E2FE029B18B1D4F81828002A5ED089
:10677000C3F30802991C013304EB8202C3F308033C
:1067800004EB8303D268DB68049302F00303022B5B
:106790000392029156D1BDF80E306648C3F38917B3
:1067A000502F3E4628BF502606F1080166F38F138E
:1067B000C1F30901ADF80E3001F047FC0546002891
:1067C00000F09F8001F070FC0023082203A92846F6
:1067D00001F07CFC0299CB43C3F308030133C1F3FE
:1067E00008010331B6EB830F4FEA830204EB81010A
:1067F00025D95FFA82F80823A6EB0806284601F09F
:1068000065FCF6B208F108034B4903F0FC0332467D
:10681000284601F05BFC029B033703EB97070297C6
:10682000D4F81838002B44D1D4F8106854E06268CA
:106830009A428FD8A260284606B0BDE8F0810823AE
:106840003246E5E7012B5CD1BDF80C303948C3F383
:106850008311062928BF062161F38913023101F053
:106860000F018900ADF80C3001F0EFFB0546002860
:1068700047D001F019FC0023082203A9284601F0A3
:1068800025FC0026BDF80C20C2F38312B30096420B
:1068900003F10803C4D202994A1CC1F30801033171
:1068A000029204EB81010422284601F00FFC01361C
:1068B000E8E7284601F0FCFBFFF732FF80F001001B
:1068C000C5B2B8E7F3685B7923B1336829461B6822
:1068D00030469847F3681E68002EF3D1284601F031
:1068E000E7FB0DF107008DF8076000F08FFED4F88C
:1068F00018380BB9029BA3609DF8070000F0AAFEB0
:10690000DAE7D4F8104854B90C4B0D480D49C01AB9
:10691000C008000440F0020000F060F8CCE72368F3
:1069200020469B689847E3681C68ECE7002582E7EF
:10693000682C002058C60200742C00206CC602008F
:1069400094C6020044C702002DE9F34704460E46F0
:10695000924601A9012218469946FFF703FE1D4FF2
:1069600020B3019D4FF00008AA1CC84508EB0201A6
:1069700025D11948002101F087F880F310000004A8
:1069800040EA1440E4006B1C04F03804C3F308032D
:10699000C5F3080544F0010407EB8303033544EA1B
:1069A000881444EA8624D86047F825403B781BB118
:1069B000FFF7C0FE0028FBD102B0BDE8F087C1F3AD
:1069C000080107EB81015AF82830CB6008F1010873
:1069D000CBE700BF682C00208434002000231A4637
:1069E000FFF7B2BF07B50123019201AAFFF7ACFF81
:1069F00003B05DF804FB07B5CDE9002302236A4626
:106A0000FFF7A2FF03B05DF804FB1FB5CDE901233A
:106A1000069B039301AA0323FFF796FF05B05DF8D9
:106A200004FB000030B50F4CD4F8102803460020BA
:106A3000114631B9D96808714AB9C4F810380A60EA
:106A400030BDC9680D79854206D00968F1E7D26882
:106A500014680C601360F3E701300A28E8D14FF0A6
:106A6000FF30EDE7682C002038B5084B0125D3F83E
:106A700010481D7004B938BDE3685D712368204675
:106A80005B689847E3681C68F4E700BF682C002047
:106A900030B5C38885B004460D4633B1144A009220
:106AA0001449154A284601F0ABF8217A05291DD072
:106AB000637A4BB1A088FFF71DFE104B104953F8C5
:106AC0002020284601F09CF8227A0E4BA08853F82B
:106AD000222003920021FFF7F1FD039A0A490346A1
:106AE000284605B0BDE8304001F08AB805B030BD99
:106AF00088C7020070C7020068C70200F4C702001E
:106B00008DC7020018C8020090C7020007B50346EF
:106B10000846197A052911D05B7A2BB1094A0A492E
:106B2000019001F06DF801980849019001F068F8B2
:106B3000019803B05DF804EB01F057B8002AF8D0D3
:106B4000F2E700BF88C702008DC7020085C70200B8
:106B50002DE9F04385B01F460C9D002395F80C905D
:106B60002B7306460C46904629463846FFF790FFA1
:106B7000B8F1060F09D8DFE808F00412181F28330F
:106B800040003146284601F03BF8002229463846AD
:106B9000FFF7BCFF85F80C9005B0BDE8F0832268D4
:106BA0003146284601F02CF8EFE7D4E900233146BE
:106BB000284601F025F8E8E7A36800933146D4E9B8
:106BC0000023284601F01CF8DFE7E3680193A3687F
:106BD00000933146D4E90023284601F011F8D4E7A8
:106BE00023690293E3680193A36800933146D4E9D3
:106BF0000023284601F004F8C7E76369039323697B
:106C00000293E3680193A36800933146D4E900231B
:106C1000284600F0F5FFB8E708292DE9F74F804630
:106C20000E4617461C463DD800251B7B2573214682
:106C300010460193FFF72CFFDFF88CA0DFF88CB033
:106C4000AE4232D918F805205946204600F0D8FF48
:106C50000135082DF4D11B49DFF874A0DFF874B0BA
:106C6000204600F0CDFF4FF000094E4524D918F81A
:106C700009507E2D1ED8284605F0E0FB002814BFE1
:106C80002A462E225946204600F0BAFF09F1010992
:106C9000B9F1080FE9D1012221463846FFF736FF46
:106CA000019B237303B0BDE8F08F5146204600F0EE
:106CB000A7FFCDE72E22E5E75146204600F0A0FFD2
:106CC000E4E700BFA4C70200A0C702009AC7020001
:106CD000A2C70200A6C70200C30710B507D4F0235D
:106CE000054A4008145C23401943115410BD0901A2
:106CF000C9B20F23F4E700BF5035002030B5094B6F
:106D00001C78094B196800239C4202DC00221046C3
:106D100030BD11F83350854201EBC302F7D0013387
:106D2000F2E700BF203500206035002013B504468F
:106D30000191FFF7E3FF38B143682BB10199204679
:106D400002B0BDE81040184702B010BD034B044824
:106D500019680022490800F05EBA00BF24350020FF
:106D60002835002010B5C0B2FFF7C8FF04460078F0
:106D700001F012FF63785A1E53425341834208D1F7
:106D8000044BD3E90023134303D1BDE81040FFF7C0
:106D9000DDBF10BD4835002037B54308374AD35C06
:106DA000C2074CBF1B0903F00F0304460D46042B1A
:106DB00025D8DFE803F003262F3C4000F9B101217C
:106DC000FFF78AFF00230DF107008DF8073000F070
:106DD0001DFC0120A4F12003C4F12001284A20FA5F
:106DE00001F100FA03F30B43A040D2E90041204334
:106DF0000B43C2E900039DF8070000F02BFC03B031
:106E000030BD002918BF0221204603B0BDE8304044
:106E1000FFF762BF49B10321FFF75EFF0121204662
:106E200003B0BDE83040FFF781BF0121ECE7002946
:106E3000E5D10421E8E709B10321E5E7FFF74CFFBD
:106E400029462046FFF772FF0DF107008DF8075025
:106E500000F0DCFB0120A4F12003C4F12001084A6A
:106E600020FA01F100FA03F30B43A040D2E90041FC
:106E700024EA000021EA0303BBE700BF50350020ED
:106E8000483500202DE9F041124E134F002433788D
:106E9000A34208DC114BD3E90023134318D0BDE80B
:106EA000F041FFF753BF3D6805EBC40815F8340007
:106EB00001F072FE98F801305A1E53425341181ADD
:106EC0004142414115F83400FFF766FF0134DEE727
:106ED000BDE8F081203500206035002048350020D5
:106EE000092AF7B505460C4616463ED901F08CFD39
:106EF000E8B11F4B1F481D601F4B204F1C70204BDB
:106F0000002110221E6005F0E3FA1E4B0020002134
:106F1000C3E90001013CE4B20326FF2C0DD11A4A5B
:106F20001A48002103B0BDE8F04000F069B901F053
:106F300033FD0028DDD003B0F0BD9DF8063015F814
:106F400034008DF8046005EBC40223F007038DF8CC
:106F5000063001A993788DF805303A4601F05EFDC0
:106F6000013CE4B20028D8D0E5E70720E3E700BF02
:106F7000603500205035002020350020656D02006E
:106F80002435002048350020856E020038C80200F4
:106F900070B5084D084E00242B789C4201D3002088
:106FA00070BD3368012113F8340001F0AFFD0134E6
:106FB000F2E700BF20350020603500201FB500211A
:106FC000039001AA44F20100CDE9011100F004F898
:106FD00005B05DF804FB000038B572B6FFF744FD5C
:106FE000FFF7A8FB0028FBD1104B114C114D1249A3
:106FF000E41AE408240444F00100FFF7EFFCD5F89C
:10700000F030DB0700D500BE0C4944F00200FFF76A
:10701000E5FCBFF34F8FEA68094B02F4E0621343CB
:10702000EB60BFF34F8F00BFFDE700BF6CC60200EF
:1070300094C6020000ED00E03CC8020048C802000F
:107040000400FA0549B152B1531E1A4007D18260BB
:1070500001608380C260104670470E20704709208F
:10706000704710B58468C2688388121B934208D3A6
:10707000C26813400268D154C3680133C360002062
:1070800010BD0420FCE78268C3689A420AD0826877
:10709000838813400268D35C0B708368013383607C
:1070A000002070470520704710B5D0E90243D1E9B0
:1070B0000202A04272EB03032CBF0120002010BD8E
:1070C00008B50A4800F0F9FB094AD2E90031C018B6
:1070D000084BD3E9002341F10001904271EB030317
:1070E00003D210F1807041F1000108BDF42A0020A4
:1070F00068350020E035002037B505460C460A48C3
:1071000001A900F030FC60B10570446001A9064897
:1071100000F053FC18B1054800F0D4FB002003B088
:1071200030BD0420FBE700BFCC350020F42A00204E
:1071300038B5184B1B78044613B90025284638BDCE
:107140000028FAD0037F03F0FF05002BF5D0FFF7EE
:10715000B7FFD4E90223904271EB030314D32369F0
:1071600003B92377D4E90530984721690029E4D091
:10717000237F03F0FF05002BDFD0D4E902325B1838
:1071800042F10002C4E902320348214601F011F83D
:10719000D4E700BF7035002064C8020013B5114B5E
:1071A00011491868019008231048582200F0A6FBE6
:1071B000044698B90E4A0F4801A900F06FFA044638
:1071C00060B90C48012100F05BFB01230A4A094821
:1071D000194600F0BDFA094B01221A70204602B090
:1071E00010BD00BF60C8020074350020CC350020FF
:1071F00061720200F42A0020FFFF7F00703500203A
:107200003AB103685A614A1E514251411961002046
:1072100070470720704738B5037F04460D4683B991
:107220008261FFF74DFF2369281841F10001C4E98D
:10723000020103B1256121460020BDE83840FFF777
:107240005BBF002038BD0023014603770120FFF714
:1072500053BF0000014800F030BB00BFF42A0020FB
:107260002DE9F347064600F013FB40B1584AD2E936
:10727000003113F1807341F10001C2E900310021B6
:10728000304600F014FB38B1524C236823B120681B
:10729000FFF74EFF002323600121304600F007FB7B
:1072A00020B1FFF70DFF4C4BC3E900014B48494D9E
:1072B0004B4C4C4F01A900F090FB002842D1DFF865
:1072C0002081444CDFF82491404600F088FF236879
:1072D000002872D07BB12368D0E90252D3E90213AF
:1072E0008D4272EB03032AD223681B7F1BB12168F6
:1072F000404600F05EFF404600F06BFFD0E9027AA6
:107300000546FFF7DDFE381A6AEB010A01287AF11B
:10731000000345DBB0F5350F40D3FFF79BFF324A42
:1073200002444FF496030021484600F031FA002849
:107330003ED1236813B9304600F002FA256002B04E
:10734000BDE8F0870378012B1DD0022B09D14FF047
:107350000008204600F03DFF002836D080F81C8051
:10736000F7E73BB941680B7F23B901230B77204630
:1073700000F01FFF01A9194800F05AFB01A91748A6
:1073800000F02BFB99E741682B68994202D100235A
:107390002B60EFE7204600F025FFEBE7AA68C0E787
:1073A0000021484600F079FA2846FFF7C1FE01E0C7
:1073B0000D28F9D00023236086E7002BBFD130468B
:1073C00002B0BDE8F04700F0BFB901233B70D1E740
:1073D00068350020E8350020E0350020CC3500205D
:1073E00064C8020070350020FFFFB400F42A0020BA
:1073F0000648074A03780749D35C012213B10430D9
:1074000002F0DAB80C3001F09DBE00BFFC2A00206B
:107410005C360020143600200648074A03780749E6
:10742000D35C012213B1043002F078B80C3001F0C3
:1074300039BE00BFFC2A00205C3600201536002033
:1074400037B50578012D0DD0022D30D075B91F4903
:107450001F48FFF718FE002834D103B0BDE83040C4
:10746000FFF7DABF037A1BB9FFF7C2FF03B030BDE5
:107470004368184C19782046FFF7F3FD80B18DF86A
:1074800000500190144B68461B689847A168E36858
:10749000A2885B1A9A42E7D2104B01221A70E5E7E4
:1074A000A268E3689A42F1D08DF80000EAE7C36869
:1074B0008DF800500193FFF79BFF074B68461B6850
:1074C0009847D3E703238DF80030F6E71536002000
:1074D00004360020F0350020EC3500200036002076
:1074E000F0B51F46234B89B004461A600D460029AB
:1074F0003DD08A8820480968FFF7A4FD002834D1D0
:10750000AA89A9681D48FFF79DFD00282DD11C4EB2
:107510000FCE6D460FC596E80F0085E80F00636932
:107520000693237C174A18488DF81C70003B18BF3F
:1075300001238DF81430637C002B14BF0E2300232D
:107540008DF81530E3680293A368039323680193D1
:1075500069466368009301F055F930B90B4B187018
:107560002368013301D0FFF743FF09B0F0BD0720C6
:10757000FBE700BFEC350020F0350020043600208A
:1075800070C8020041740200FC2A0020003600206E
:1075900070B5084D014608482E78FFF774FD044683
:1075A00036B100232B70FFF723FF08B1FFF706FD6C
:1075B000204670BD00360020F035002010B5014691
:1075C0000E48FFF74EFD0446A8B90D480D4A037852
:1075D000D35C63B1043001F095FF60B90A490748F4
:1075E000FFF751FD38B9BDE81040FFF715BF0C306B
:1075F00001F04CFDF1E7204610BD00BF043600202D
:10760000FC2A00205C3600201536002070B5EFF310
:10761000108672B60C4A946801239CB993600B4B98
:107620000B4DD3F8801029401160C3F88050D3F877
:10763000841051604FF0FF32C3F88420047006B903
:1076400062B670BD0370FAE71836002000E100E072
:10765000FC06FFBD084B9A6810B55AB150B9EFF35C
:10766000108172B6054A1C6814605C6854609860AA
:1076700001B962B610BD00BF1836002000E100E07D
:10768000435882B03BB10023435043580193019BC0
:10769000012002B070471846FBE70000F8B5204B08
:1076A0004479204E43F824201F4A204B06EBC404A3
:1076B0009B1A2279DB081B0432B143F002001C49FB
:1076C000FFF78CF90820F8BD02680C88C2F808455D
:1076D00090F904508A7804795201002DD2B219DB56
:1076E00014494F1987F8002301226D0904F01F0483
:1076F00002FA04F441F82540427906EBC201012464
:1077000046F832000C7143F003000B49FFF766F9AD
:107710000020D8E7094904F00F040A55ECE700BF40
:107720002C360020243600206CC60200A4C60200BD
:1077300090C8020000E100E0B2C8020014ED00E0D1
:10774000036801221A607047036801225A6070477B
:1077500073B501F15005AD000068ADB24FF480344F
:107760008C400026C0F80843C0F84843465101F554
:10777000A8714559019522F07F42019D40F82120D2
:10778000C0F844430BB1C0F8044302B070BD000020
:107790002DE9F74F0D4622F07F4402684FF4803701
:1077A00005F150068F408046B60002EB8500C2F816
:1077B0004873B6B2C2F80873D2F8041599464FF070
:1077C000000BD0F84035C0F8401542F806B05B1AFF
:1077D0009259009223F07F43012B009A4FEA850AC9
:1077E0000CD1264B4FF4806043F001039847D8F842
:1077F000003043F806B09B590193019BD8F8001064
:10780000D1F80465C1F84473A31B23F07F43012B17
:107810001CD11A4B05F5A875013443F0010341F85A
:1078200025404FF480609847D8F80030D3F80435ED
:107830009E4209D1D8F800300020C3F84473C3F841
:10784000047303B0BDE8F08F0D20FAE78A44C9F154
:10785000FF13CAF84045D1F80405221A013A22F074
:107860007F4203F57F439342EED3002AE2D10134F5
:10787000CAF84045D1F804359842DAE7D0C802008A
:1078800003680222C3F8442309B1C3F804237047F4
:1078900000684FF48271FFF7F3BE4FF4803303FAB0
:1078A00001F10368C3F84813C3F808137047503157
:1078B0008900006889B2FFF7E3BE0368D3F80405C6
:1078C0007047000090F90430002B09DB5A090121B0
:1078D00003F01F0301FA03F34032024941F822305A
:1078E000704700BF00E100E0024B034A1B681068CC
:1078F000184700BF2C3600202436002010B561B197
:10790000B2FBF3F403FB1424A4B244B9C0E900149D
:1079100084608281C381204610BD0E20FCE70920CF
:10792000FAE782B050E8022FC188B2EB324F4FF035
:10793000000317BF92B241EA014142EA014104E06B
:107940004268B2EB324F08BF012340E80212002A1E
:10795000E8D18DF807309DF80730002B0CBF1120BF
:10796000002002B0704737B550E8013F9DB2C4898E
:1079700025448489A54228BF2D1B0489A54202BF46
:10798000BFF32F8F002207E0C5EA030540E801544A
:10799000002CE9D14FF001028DF803200193019AE8
:1079A0000A609DF8031001F0FF0321B1006810FA8E
:1079B00082F003B030BD1846FBE70A884B889A4234
:1079C00009D150E8012FC2EA024240E80123002B0E
:1079D000F7D1012070470020704737B550E8023FCB
:1079E0001FFAA3F5C488A54202BFBFF32F8F002260
:1079F0000DE0C48925448489A54228BF2D1BC3EA14
:107A0000054540E80254002CE8D14FF001028DF802
:107A100003200193019A0A609DF8031001F0FF030F
:107A200021B1006800EB124003B030BD1846FBE7FF
:107A30000A884B889A4209D150E8022FC2EA2242B2
:107A400040E80223002BF7D1012070470020704747
:107A500001F01F024B090121914000EB830000F06F
:107A60002AB801F01F0301229A404B0900EB830062
:107A7000D14300F038B84B0901F01F0150F8230042
:107A8000C84000F00100704710B5034653E8000FEE
:107A90000A4643E8002494F0000FF7D110BD10B55A
:107AA000034653E8000F40EA010243E8002494F043
:107AB000000FF6D110BD10B5034653E8002F42EA7F
:107AC000010043E8000494F0000FF6D110BD10B59A
:107AD000034653E8000F00EA010243E8002494F053
:107AE000000FF6D110BD10B5034653E8002F02EA8F
:107AF000010043E8000494F0000FF6D110BD10B56A
:107B0000034653E8002F02EB010043E8000494F021
:107B1000000FF6D110BD10B5034653E8002FA2EBBD
:107B2000010043E8000494F0000FF6D110BD0121DC
:107B3000FFF7B5BF0121FFF7BEBF0021FFF7C7BFA9
:107B400010B590B1D0E9012301689B1ADBB20A603D
:107B5000013BDBB2FF2B026802D10020107110BD87
:107B600011684C1C14600B70F2E70E20F7E737B574
:107B7000054600240DF107008DF80740FFF746FD8C
:107B80002A686B68116899420ED9481E106011F876
:107B9000013CEC68298A01FB0344AB6811791B1A8C
:107BA000DBB2994238BF13719DF80700FFF752FD11
:107BB000204603B030BD37B5054600230DF1070060
:107BC0000C468DF80730FFF721FD2A681368591C11
:107BD0001160E968641A298AB4FBF1F41C709DF8FD
:107BE0000700FFF737FD03B030BD826810B50446CB
:107BF0002AB143690168006998470023A36010BD5A
:107C00000EB403B5039921B104AB01AA019300F0AE
:107C100077F802B05DF804EB03B070470A2938B575
:107C200004460D4602D10D21FFF7F8FFA368226834
:107C3000591CA160D554D4E901329A4204D320469C
:107C4000BDE83840FFF7D1BF38BD00002DE9F84F3F
:107C50009846DDE90A43154682460F460A464FF02C
:107C60000109AA420FD2C14538BFC14613F0010B2A
:107C700001D16CB900240126B8F1010F1BD908F11C
:107C8000FF386E43F8E709F10109B2FBF5F2E8E7C6
:107C90009B070ED5B8F1000F0CBF30262026A1455A
:107CA000E9D2013C31465046FFF7B8FF002CF6D12F
:107CB000E0E72026F3E7B7FBF6F39D42E1D9DFF8D2
:107CC0003C80B7FBF6F3504618F8031006FB137719
:107CD000FFF7A4FF3346AB42B6FBF5F6F1D2BBF19A
:107CE000000F02D00CB1A14501D3BDE8F88F2021CF
:107CF0005046013CFFF792FFF4E700BFD6C80200F0
:107D00002DE9F74F054617468846002900F03E81C9
:107D100018F8011B49B92B7B002B00F0378128464E
:107D200003B0BDE8F04FFFF760BF252940F0B780F2
:107D3000002698F800302D2B424608F1010823D088
:107D4000302B24D02B2B25D000242A2B02F101012B
:107D500023D13B681A1D1B683A601C440A461378FD
:107D60002E2B26D101324FF0000A104610F8011BCD
:107D7000A1F1300CBCF1090F1DD80A2303FB0A1333
:107D8000A3F1300A0246F0E746F00106D1E746F0DB
:107D90000206CEE746F00406CBE711F8013CA3F15A
:107DA00030000928DBD80A2202FB0434303C0A46A2
:107DB000CBE74FF0000A12F8011B01F0FB00682826
:107DC0009046F8D0782909D86F290CD8632962D059
:107DD00022D8252963D0582900F0888098F80030EF
:107DE000002B95D197E770390829F7D801A353F8EC
:107DF00021F000BF677F0200DD7D0200DD7D020013
:107E0000FD7E0200DD7D0200DB7E0200DD7D0200E2
:107E1000DD7D0200ED7E0200642901D06929DDD1FB
:107E20003A68D2F80090111D89EAE9723960A2EB34
:107E3000E9724FF0010B092A35DCD34538BFD34630
:107E40002CB1B9F1000F01DB720700D5013CB3077B
:107E500002D5BAF1000F03D0F00701D44CBB0024C7
:107E6000B9F1000F2DDAC9F100092D212846FFF7DD
:107E7000D5FE06F00302022A04D1BAF1000F01D1A7
:107E80001CBB0024CDE9004653460A224946284639
:107E9000FFF7DCFEA2E73B681A1D19783A60284616
:107EA000FFF7BCFE9AE70A230BF1010BB2FBF3F2DA
:107EB000C1E7A345D4D220212846013CFFF7AEFEFE
:107EC000CCE77107D5D52B21D0E7A345DAD23021F5
:107ED0002846013CFFF7A2FED2E73968CDE900460B
:107EE0000A1D3A6053460A220968D0E739680A1D1C
:107EF0003A60CDE9004653461022F5E73B681A1D6B
:107F00003A6016F00106D3F8009024D1B9F1000FC1
:107F100003D0484604F031FB0646B4421DD809F1AF
:107F2000FF3919F8011F00293FF458AF2846FFF721
:107F300075FEF6E728460136FFF770FE19F80610C1
:107F40000029F7D1A642BFF449AF20212846013CC1
:107F5000FFF764FEF6E70026F0E720212846013C03
:107F6000FFF75CFED9E73B681A1D3A6030212846CE
:107F70001C68FFF753FE78212846FFF74FFE0022CA
:107F80000823CDE900322146102280E703B0BDE886
:107F9000F08F00BF2DE9F84FB0F806A04579D2F870
:107FA00000B09DF828900AFB05F5043D88460BEBD0
:107FB0000301A94203F1040488BFA5EB030BB4FB42
:107FC000FAF607460AFB1644C2F800B04EB9AAEB0F
:107FD00004055D4528BF5D46BBF1000F04D1BDE837
:107FE000F88F3F68013EF1E7043408EB06003C449B
:107FF0002A46B9F1000F0DD02146ABEB050B04F07A
:108000003EFADA452E443F6855464FF0000428BF3B
:108010005D46E1E701462046EFE7FFF791BDF8B581
:1080200046790146721E0546002393422D6803D30C
:108030000024A64202D8F8BD0133F6E70F682846AF
:10804000FFF7B9FD01343946F3E72DE9F843068A15
:10805000CD1C0746FFF78BFD043E35440446B5FBB7
:10806000F6F5F0B14FF48073EDB28380C680013D28
:10807000076081464FF00008A84512D23846FFF746
:1080800076FD064648B163790133637108F1010852
:10809000C9F8000007608146EEE72046FFF7BFFF02
:1080A00034462046BDE8F88301210430FFF727BDA0
:1080B00010B5012104460430FFF72DFDC0B220B9F0
:1080C0002046BDE81040FFF7AABF10BD1FB50392C0
:1080D0000022009203AAFFF75DFF05B05DF804FBE4
:1080E0001FB503920122009203AAFFF753FF05B0C8
:1080F0005DF804FB41DF7047064B10B500241C708F
:10810000054B1C60BFF35F8F0449054800F03BF846
:10811000204610BD383600203C360020F0C8020052
:108120003036002007B500230DF107008DF8073029
:10813000FFF76CFAF1EE103A23F09F03E1EE103AEC
:10814000BFF35F8F0A4B4022C3F884219DF80700DC
:10815000FFF780FA03F030FF20B103B05DF804EBC5
:10816000FFF7C8BF20BF40BF20BF03B05DF804FBCE
:1081700000E100E0836800225A60C3E904229A60AB
:10818000DA601A6070470B684A684360934208BF20
:108190000023016008BF43607047436843B1026831
:1081A000916852680B449342436004BF00234360CC
:1081B000704770B5446806460D46206818B1B3682C
:1081C0002946984718B923682B60256070BD24683C
:1081D000F3E74368186808B102681A60704743689B
:1081E000186870474368186800B97047884203D11F
:1081F00002681A600120704703460068F4E7000037
:1082000010B50D49A1F59472914201D800200FE0FC
:108210008C1AE30F03EBE4035B1002EBC30452F888
:108220003330834205D802D204F10802ECE76068DB
:1082300010BD2146E8E700BFFCCD020008B5FFF7FE
:10824000DFFF024B002808BF184608BDBFCC020064
:1082500010B50446C0B2FFF7B1F9204610BD4FF08B
:108260008053D3F83001421C04BF4FF0704393F8A1
:10827000E00F831F58425841704700004FF0704391
:1082800093F8E02F062A09D1D3F8E83FC3F303138C
:10829000033B032B02D8024AD05C70470020704792
:1082A00004CE020008B5FFF7DAFF40B14FF080536B
:1082B0008F4AD3F82433C3F30423C2F84035FFF7C1
:1082C000DDFF10B18B4B8C4A5A67FFF7C8FF48B1EE
:1082D0004FF080534FF08042D3F84432C3F342331F
:1082E000C2F83C35FFF7CAFF30B1844AD2F8FC30FF
:1082F00023F08073C2F8FC30FFF7B1FF40B14FF0BC
:1083000080430022C3F80C21C3F81021C3F838259C
:10831000FFF7B4FF20B14FF080430322C3F8A0253C
:10832000FFF7ACFF60B1764B0522C3F8102601229F
:10833000C3F888260022C3F818263F22C3F8142663
:108340004FF08053D3F83021511C09BF4FF07043D8
:10835000D3F8343193F8E02FD3F8E83F08BFC3F3E4
:108360000313062A4DD1033B032B03D8654AD35C84
:10837000002B46D04FF08052634BD2F80414C3F860
:108380002015D2F80814C3F82415D2F80C14C3F839
:108390002815D2F81014C3F82C15D2F81414C3F809
:1083A0003015D2F81814C3F83415D2F81C14C3F8D9
:1083B0004015D2F82014C3F84415D2F82414C3F899
:1083C0004815D2F82814C3F84C15D2F82C14C3F869
:1083D0005015D2F83014C3F85415D2F83414C3F839
:1083E0006015D2F83814C3F86415D2F83C14C3F8F9
:1083F0006815D2F84014C3F86C15D2F84424C3F8B9
:108400007025FFF72CFF48B14FF080534FF08042AA
:10841000D3F8583203F04F03C2F8E43EFFF71FFFD2
:1084200048B14FF08043D3F80024D20744BF6FF027
:108430000102C3F800244FF08053D3F83021062AFC
:108440000ED1D3F83431033B032B02D82F4AD35C2F
:1084500033B12F4AD2F83C3743F48063C2F83C373B
:10846000264AD2F8883043F47003C2F88830BFF34C
:108470004F8FBFF36F8F4FF01023D3F80022002AE5
:1084800003DBD3F80432002B2EDA224B0122C3F88F
:108490000425D3F80024002AFBD04FF01022152128
:1084A000C2F80012D3F80024002AFBD04FF01023AA
:1084B0001522C3F80422174BD3F80024002AFBD05E
:1084C0000022C3F80425D3F80024002AFBD0BFF310
:1084D0004F8F0A49104BCA6802F4E0621343CB6025
:1084E000BFF34F8F00BFFDE70C4B0D4A1A6008BD6C
:1084F0000030014000C007400DF0ADBA00ED00E0D3
:1085000000500040FCCD020000C0004000CE020040
:108510000010004000E001400400FA05102B00208C
:108520000090D003054A4FF0A043105CD3F8043507
:1085300023FA00F0C04300F0010070470CCE0200A7
:10854000044B1A5C012393404FF0A042C2F80C3553
:10855000704700BF0CCE0200044B1A5C012393400D
:108560004FF0A042C2F80835704700BF0CCE0200A1
:1085700008B50020FFF7F0FF0120FFF7EDFF022014
:10858000FFF7EAFFBDE808400320FFF7E5BF08B5A5
:108590000020FFF7D5FF0120FFF7D2FF0220FFF7F1
:1085A000CFFFBDE808400320FFF7CABF074A4FF0DE
:1085B000A041105CD1F804350122824022EA030078
:1085C0001340C1F80805C1F80C3570470CCE020005
:1085D000054A4FF0A043105CD3F8103523FA00F0A1
:1085E000C04300F00100704708CE02000D2809D0FA
:1085F0000E2809D00F2809D010280CBF03204FF0F7
:10860000FF307047002070470120704702207047FC
:10861000014B185C704700BF08CE0200C20708B5C6
:1086200001460CD54FF0A0430322C3F84427C3F8FA
:108630004827C3F84C27C3F85027FFF799FF8B074B
:108640000AD54FF0A0430C22C3F83427C3F83827CB
:10865000C3F83C27C3F8402708BD000038B5074CD5
:10866000051E04F1080318BF1C4623682BB11A68C5
:1086700022605B6828469847F7E738BD48360020F7
:1086800020B9054B01225A70FFF7E8BF012802D13B
:10869000014A9070F8E770474036002020B9034B3C
:1086A00001225A70FFF7DABF704700BF4036002042
:1086B00038B50E4C2378B3B90D486360A3602361CD
:1086C000E36000F0E7F8054603F076FC08B900F037
:1086D000EDF801232370074BD3F800340BB10123CD
:1086E000A370284638BD8525F5E700BF4036002039
:1086F000818602000000014037B50D4C00230DF1CA
:1087000007008DF80730FEF781FFE368013BE36067
:10871000E36833B9074BD3F8005415B900F0D8F823
:10872000A5709DF80700FEF795FF03B030BD00BFB0
:108730004036002000000140012813B50CD003286A
:1087400020D038B9134B0122C3F88020BFF34F8FDC
:10875000BFF36F8F02B010BD0F4C00230DF1070067
:108760008DF80730FEF752FF23780BB9FFF7A0FF13
:10877000E3689DF807000133E3600123A370FEF76F
:1087800069FFE7E700F092F802B0BDE81040FFF79C
:10879000B3BF00BF00E100E0403600201FB5037802
:1087A0008DF800304368019383688DF80830C36802
:1087B000054A0393054B684653F8213052F82110BF
:1087C000984705B05DF804FB543600205836002069
:1087D0001FB503788DF800304368019383688DF8E6
:1087E0000830C368054A0393054B684653F82130A7
:1087F00052F82110984705B05DF804FB543600206C
:1088000058360020F0B5194B90F800C091F81DE0E3
:1088100043F82C20164B16460A6943F82C20154BBA
:1088200003F80CE00C4607460FCC89B06D460FC527
:1088300094E80F0085E80F00CDF810C0BEF1000FDE
:1088400009D0002E0C4A694608BF3246381D00F098
:1088500097FD09B0F0BD002E084A694608BF3246B0
:1088600007F10C0000F05EFBF3E700BF5836002074
:10887000543600205C3600209D870200D18702001C
:1088800000F18040002382B0036003680193019BE4
:1088900002B07047044A137923B901211060918016
:1088A000184670478520704760360020074B1A68CD
:1088B000D20704D4C02283F8002301221A604FF0AB
:1088C00080430122C3F81825704700BF00E100E093
:1088D0004FF0804208B50223C2F808334FF482708B
:1088E000FFF7CEFF0123D360D2F81834DB03FBD4AB
:1088F00008BD00004FF0804110B5D1F8003163B1E0
:108900004FF48070FFF7BCFF0D4B58790122C1F87E
:10891000082310B95A711B6898474FF08042D2F86B
:10892000043163B14FF48270FFF7AAFF0223C2F84B
:108930000833034BBDE810401B680120184710BDE9
:108940006036002000F1804000F5C040002382B076
:10895000036003680193019B02B07047800000F13F
:10896000A040D0F8002722F44032C0F80027D0F809
:10897000003743EA0141C0F800177047054B4FF03C
:10898000FF32072843F8202084BFC01880F8482011
:10899000704700BF6836002010B5184991F858306C
:1089A00053BB4FF0FF3222FA03F0C00748BFC8188C
:1089B00003F1010348BF80F83020202BF3D10024BD
:1089C000E0B20134FFF7DAFF0C2CF9D10C4B002296
:1089D000C0204A6583F80603402018604FF4BE703B
:1089E000FFF7B0FF074B4FF00040C3F8040301232B
:1089F00081F85830104610BD0820FCE7683600208A
:108A000000E100E000600040034B93F8580000389C
:108A100018BF0120704700BF68360020F0B5394EFE
:108A2000331893F93030002B69DA8D78C5F340059F
:108A3000002D0BBF082300230C240824A34201D1DE
:108A40000420F0BD56F82370013743D137185CB2CB
:108A500046F8232087F8304015B9F21882F848000C
:108A60008A78550716D4D70736D5820002F1A0427E
:108A7000D2F8005725F00205C2F80057224FC5086A
:108A800000F0070C012202FA0CF217F805C042EAC6
:108A90000C027A558A780D7812F0020225D09B00DC
:108AA00003F1804303F5C0430002D3F8102522F4FC
:108AB000473222F44072C3F810252D04D3F8102554
:108AC00000F4F85005F4403528431043C3F810056E
:108AD0000020B6E70133B1E74D7800F5E0724FF0C2
:108AE000A047AD0047F82250C8E7083C46FA84F496
:108AF00094F8500040EA851584F85050E8E70820C3
:108B00009FE700BF68360020BC36002038B5204CF7
:108B1000251895F93020072A18DD083A44FA82F41E
:108B200094F850309B09032B0BD14FF0A043D3F89E
:108B30001015C14001F001010231BDE83840FFF7D6
:108B40000DBF012B0CBF02210321F6E7D3B2072B87
:108B50001DD8930003F1804303F5C043D3F81005FB
:108B600040F00100C3F8100502F1400040B280005F
:108B700080B2FFF7E7FE51B195F9303054F8233059
:108B80002BB1012303FA02F2024BC3F8042338BDD0
:108B900068360020006000404FF0A043D3F8103545
:108BA00023FA00F000F00100704700002DE9F74FB4
:108BB00000244E4D01944FF48072012102F1804354
:108BC00003F5C04390B21B68012B06D1D5F80433DE
:108BD0000B4202D0FFF7B6FE0C430432B2F5907F91
:108BE0004FEA4101EAD1414BD3F87C31012B0CD142
:108BF0004FF4BE70FFF7A6FE4FF0A04344F00044D0
:108C0000D3F820250192C3F82025E3B2D3B1384F21
:108C100000250126344210D0AB0003F1804303F558
:108C2000C043D3F81005D3F8101557F8253023B1F9
:108C3000C1F30141C0F3042098470135082D4FEAE4
:108C40004606E7D1002C48DA294D4FF0A048294EBE
:108C50004FF00009012716F9013B5A1C31D0C3F32C
:108C6000C20202A90A44DCB212F8042C03F03F0A43
:108C700003F0070307FA03F31A4222D00AF5E07360
:108C8000504658F82330C3F3014BBBF1020F0CBF21
:108C900003210221FFF762FE07FA0AF3C8F8203524
:108CA00005EB0A0393F9303055F823304BB1A10995
:108CB000032904D0BBF1020F12D1012901D1504682
:108CC000984709F10109B9F1040FC4D1D8F820354A
:108CD0000193C8F82035002BB9D103B0BDE8F08F5F
:108CE000BBF1030FEDD10229E8E700BF00600040AF
:108CF00068360020B8360020014B1B68184700BFBB
:108D0000C43600200E4B984237B50C4602D00020E6
:108D100003B030BD00230DF107008DF80730FEF7DA
:108D200075FC084B1D7915B901221C601A719DF85C
:108D30000700FEF78FFC002DE9D01120E8E700BF07
:108D400000200040C43600200023435082B0435826
:108D50000193019B02B070470A4610B54FF48E7123
:108D6000FFF7F2FF136A9168C95C136A013313625B
:108D7000C0F81C1510BD024608B500684FF492718A
:108D8000FFF7E2FF10684FF48471FFF7DDFF13680F
:108D900001221A6008BD8B690A4610B54FF4847130
:108DA00023B9FFF7D1FFD0F8183510BDFFF7CCFF7E
:108DB000536AD168D0F81805C854536A0133536216
:108DC000F3E700001FB501238DF80030044BCDE917
:108DD0000110D3E900126846904705B05DF804FB26
:108DE000CC36002030B54D4DD5F804339A0585B00A
:108DF00051D5D5F82431002B4DD04FF4927128462F
:108E0000FFF7A2FF4FF40173C5F80833444B93F802
:108E100029200AB901226A60404902228DF8002007
:108E2000D1F88024C1F8802403929A690292DA680A
:108E300001920022C3E906226846D3E90012904756
:108E40003648D0F81C315BB1354A5169136A9942F2
:108E50004DD992F82830002B49D11146FFF77CFFFD
:108E60002E48D0F84431002B56D04FF4A271FFF7B2
:108E70006BFF2B4B93F829200AB1012202609A69FB
:108E8000002A49D0586AD96800229A6105B0BDE825
:108E90003040FFF797BFD5F804335B07D0D5D5F83E
:108EA0000831002BCCD01E4C1C482146FFF773FF25
:108EB000636AA2699A42C3D1E369E1684BB1A361D5
:108EC0002369E3600023606AE3616362FFF77AFF6E
:108ED000B6E794F829300BB901236B600F4B4FF4C0
:108EE0000172C3F808230023606AA361EEE70B4810
:108EF0004FF48E71FFF728FF5369002BB0D05169F2
:108F00000291002391688DF8003001915361684609
:108F1000D2E900139847A3E705B030BD0020004018
:108F2000CC3600202DE9F843534D90F804802C23D3
:108F300003FB0853064693F82A300C469146002B53
:108F400040F096804D490068FFF7DCFE0746002898
:108F500040F0908022683068511C0BD04FF0A04147
:108F600001239340C1F8083502F5E0734FF0030C7C
:108F700041F823C061684B1C1FBF01F5E0734FF03F
:108F8000A04C4FF0000E4CF823E0A369C0F8243544
:108F900094F814C0637DBCF1010F4CEA0303C0F8E0
:108FA0006C35C0F81415C0F80C251DD1A268531CEF
:108FB0001FBF02F5E0734FF0A0414FF0000C41F8E5
:108FC00023C0E368591C0BD04FF0A04C01219940FD
:108FD000CCF8081503F5E0714FF0030E4CF821E0D2
:108FE000C0F80835C0F810252C2202FB08F2AB1897
:108FF000C3F804902369AB50B9F1000F20D04FF4AF
:109000008E71247FFFF7A0FE4FF4A2713068FFF746
:109010009BFE32681A4BC2F80433130B42F307323B
:109020006101002AC9B21EDB1648841884F80013B7
:109030000121520903F01F0301FA03F340F8223023
:1090400033680422C3F800252C2303FB08530022B5
:10905000C3E9062283F829205A61012283F82A20D5
:109060003846BDE8F883084A03F00F03D154E7E718
:109070000827F5E71127F3E7CC360020E58D02003D
:109080008000020000E100E014ED00E00279044BF2
:109090002C2101FB02335869003818BF01207047AA
:1090A000CC3600202DE9F84F064690F8048089461A
:1090B0009246FFF7EBFF044600283CD1204F2C25B9
:1090C00008FB057B4FF48E71CBF814A0CBF8089009
:1090D000CBF820008BF828003068FFF735FE3068A9
:1090E000012383605946FFF737FEDBF804305D4605
:1090F0001BBB3068DBF814402B6A9C4211D83368E4
:10910000D3F81C21002AFBD00122DA6000202C2396
:1091100003FB087700237B61BDE8F88F95F82830C2
:109120003BB9D0F81C31002BF8D05946FFF714FE9C
:10913000E2E70F20EBE71120EEE72046ECE700BF67
:10914000CC3600202DE9F0473A4D07792C2303FB5C
:10915000075306465C6824B103684FF40170C3F8F6
:1091600008032C2303FB0753986950B1D8690028E2
:1091700041D024B133684FF40172C3F804231124A1
:1091800036E09A61D9605862D8612C2303FB0753FB
:1091900093F829301BB910B93046FFF7ECFD4FF0BA
:1091A0002C0808FB075A3068DAF80430002B37D156
:1091B0004FF4A271D046FFF7C7FD3068D0F8249174
:1091C000D0F80831D0F84441CBB914B9B9F1000F47
:1091D000F3D02C2303FB07550023AB61B9F1000F3B
:1091E00024D12CBB95F8291033680122B1B11A6043
:1091F0002046BDE8F0871961DA610120C5E7B9F1C1
:10920000000FE6D1002CE4D14146FFF7C4FDDAF8A7
:109210002430DAF818209A42CFD8DAE75A60E7E724
:109220004FF40173C0F804330024E1E70324DFE7BF
:109230000F24DDE7CC3600200023435082B0435892
:109240000193019B02B070471FB501238DF80030D8
:10925000044BCDE90110D3E900126846904705B0F0
:109260005DF804FBF83600207FB5434AD2F824614C
:10927000002E60D010464FF49271FFF7DDFF0223FD
:109280008DF80030D2F88034C2F880340393D2F8DD
:109290003C350293394BDA6801920022C3E9062279
:1092A0006846D3E9001290473348D0F8443173B18F
:1092B0004FF4A271FFF7C0FF304B9A693AB1002218
:1092C000C3E90622D968D0F83C05FFF7BDFF2A485C
:1092D000D0F82031ABB14FF49071FFF7ADFF01230F
:1092E000C360264B5A6962B1D0F84C150291002236
:1092F00099688DF8002001915A616846D3E90012FF
:1093000090471D48D0F858319BB14FF4AC71FFF72E
:1093100093FF1A4B5A6962B1D0F84C1502910022A2
:1093200099688DF8002001915A616846D3E90012CE
:10933000904704B070BDD2F81031002BB4D04FF478
:1093400088711046FFF778FF0C4BD2F83C059969FD
:109350008842A9D1DC69D96864B1D2F8005225F0FD
:109360002005C2F800521A699C61DA60DE61FFF7DD
:109370006BFF99E79C61FAE700200040F836002077
:109380002DE9F8435A4E90F80480242303FB086328
:10939000044693F820300D469146002B40F0A38000
:1093A00054490068FFF7AEFC0746002840F09D8056
:1093B0002A682068511C0BD04FF0A0410123934034
:1093C000C1F8083502F5E0734FF0030C41F823C0F3
:1093D00069684B1C1FBF01F5E0734FF0A04C4FF0C4
:1093E000000E4CF823E0AB69C0F8243595F814C0A2
:1093F0006B7DBCF1010F4CEA0303C0F86C35C0F87B
:109400000C25C0F814151DD1AA68531C1FBF02F506
:10941000E0734FF0A0414FF0000C41F823C0EB681F
:10942000591C0BD04FF0A04C01219940CCF80815E5
:1094300003F5E0714FF0030E4CF821E0C0F8083559
:10944000C0F81025242202FB08F2B318C3F80490D8
:109450002B69B350B9F1000F2FD04FF488712A7FD8
:10946000FFF7EAFE20684FF49071FFF7E5FE2068F1
:109470004FF49271FFF7E0FE20684FF4A271FFF7FE
:10948000DBFE4FF4AC712068FFF7D6FE23681A4963
:10949000C3F80413190B43F307335201002BD2B264
:1094A0001CDB1648C51885F8002301225B0901F072
:1094B0001F0102FA01F140F8231023680822C3F8C3
:1094C0000025242303FB08660023C6E906337361E5
:1094D000012386F820303846BDE8F883084B01F0B8
:1094E0000F015A54E9E70827F5E71127F3E700BF12
:1094F000F8360020699202001003420000E100E00B
:1095000014ED00E00279044B242101FB0233586979
:10951000003818BF01207047F836002001F0604382
:10952000B3F1005F2DE9F0470646884692463BD1ED
:1095300090F80490FFF7E6FF0446002836D11D4F4F
:109540003068242505FB09754FF49071C5F814A007
:10955000C5F80880FFF770FE4FF4AC713068FFF774
:109560006BFE33686A69A968C3F84415C3F84825D7
:1095700001229A606A68DAB9D3F82021D3F8580139
:109580001AB90028F8D00F2007E00028FBD10122EB
:10959000DA60D3F85821002AFBD0242303FB097793
:1095A00000237B61BDE8F0871020FBE71120F9E77D
:1095B0002046F7E7F8360020F8B501F06043B3F134
:1095C000005F04460F465ED10379304D242101FB34
:1095D0000351496821B100684FF40476C0F808636C
:1095E000242000FB03539E6956B1D869002839D066
:1095F00021B123684FF40472C3F80423112030E032
:109600009A61DF60DE6120684FF48871FFF714FE15
:1096100020684FF4A271FFF70FFE2368C3F834757A
:10962000C3F8382516BB01221A602479242202FBD4
:10963000045252680ABBD3F81011D3F84421D3F86E
:109640002401114302D10028F5D00A46242303FB4C
:1096500004550023984218BF03209A42AB6118BFFB
:109660000F20F8BD1F61DA610126CCE7D3F8002294
:1096700042F02002C3F80022D7E74FF40472C3F887
:1096800004230020EDE71020EBE700BFF8360020B0
:1096900013B50B46114680B9104B1148114AC01A38
:1096A0000E23C0080093104B0004104940F0010045
:1096B000FDF7ABF90E2002B010BD4BB9074B0848BF
:1096C0000B4AC01AC0080E2300930004064BECE7B7
:1096D00003601B6802B0BDE8104018476CC602006A
:1096E000C4C602002DCE020061CF020032CE0200BD
:1096F00061CE02002DE9F743DDF8288088B93E4BA2
:109700003E483F4AC01AC0080E243E4B0094000455
:109710003D4940F00100FDF778F9204603B0BDE86F
:10972000F0834AB9344B3548384AC01AC0080E2471
:10973000344B00940004EBE7D0F800E0BEF1000FDA
:1097400009D12D4B2D48324AC01AC00808242D4B90
:1097500000940004DCE74BB9274B28482D4AC01A77
:10976000C0080924274B00940004D1E74568D5F8C8
:109770000490B3FBF9F509FB15354DB11E4B1F489D
:10978000254AC01AC00809241E4B00940004BFE7F4
:109790008D0709D0184B1948204AC01AC008102458
:1097A000184B00940004B3E712F0030F09D0124BDA
:1097B00012481B4AC01AC0081024124B009400041F
:1097C000A6E7C568A9420DD34D1EEC180569AC4249
:1097D00008D8CDF82880DEF80C40A44603B0BDE8D8
:1097E000F0436047044B05480E4AC01AC0081024D5
:1097F000044B009400048BE76CC60200C4C6020050
:109800002DCE02004ECF020032CE0200AFCE0200BB
:109810005BCE02006ECE0200B5CE0200DFCE0200AB
:10982000F7CE02001ACF020070B550B90E4D0F4CA2
:109830000026641B1423B4FBF3F4B44208D10020C7
:1098400010E00368002BF1D0BDE87040DB691847D9
:109850002B6813B901361435EFE7DB6928469847C2
:109860000028F7D070BD00BFD82A0020EC2A0020C5
:1098700029DF704728DF704770B503689E6886B09F
:1098800004460D466EB114220021684602F020FE07
:10989000A3680593237901952BB1012B0DD0684660
:1098A000B04706B070BD01238DF8003023690293E4
:1098B000E368039363690493F1E702238DF80030B2
:1098C000E3681B030293F5E70846704700207047E2
:1098D000024B187A003818BF01207047B8370020B3
:1098E000034B187A0122B0FA80F05A74400970478D
:1098F000B837002008B510461A4602F0C0FD002017
:1099000008BD000008B514220021044802F0E0FD63
:109910000348FEF706F8002008BD00BFB837002056
:10992000A837002010B5094C094B43602046FEF7CC
:10993000FEF840B902F040FB064920741C2306489B
:109940008C22FDF7DBFF002010BD00BFB8370020E0
:1099500074CF02001C370020A837002038B5234DF3
:10996000234C2B7A3BB923492348FEF736F8206075
:1099700008B9686038BD022324682B72237973B15B
:10998000012B24D020460321FFF776FF00232B7202
:109990006B6018491848BDE83840FEF749B8D4E96B
:1099A0000523D21AB2F5805FD4E9031028BF4FF423
:1099B00080529208012A38BF012219441844FFF747
:1099C00057FF50B11128DDD101232B72D2E7D4E922
:1099D00003031844FFF74EFFF3E72B7C002BC9D19C
:1099E000BDE83840022000F009B800BFB8370020B9
:1099F000D0370020CC370020A837002038B5234CC2
:109A0000237A002B41D0022B09D1032830D0204BE0
:109A100000221B68E2601A793AB1012A22D0637CE5
:109A20007BBBBDE83840FFF799BFD3E905128D1A1B
:109A3000B5F5805F94BF521902F580529A61914248
:109A4000EDD102284FF0000308BF19462372104BD6
:109A500018BF0D211868FFF70FFF0E490E48FDF7DC
:109A6000E7FFDCE71A6901321A615B699A42E7E7AE
:109A7000E3680133082B01D8E360D0E70023E360FB
:109A8000DFE7BDE8384002F087BA38BDB8370020BC
:109A9000D0370020CC370020A8370020831E012BB0
:109AA00001D8FFF7ABBF704700F0FD03012B08D1D1
:109AB000044B00225A74421E504250411874FFF762
:109AC0004DBF7047B837002010B5064C201DFEF77B
:109AD0002EF828B9637C1BB9BDE81040FFF73EBFE4
:109AE00010BD00BFB83700202DE9F34180460D4678
:109AF000104801A916461F46FDF735FF0446B0B1D0
:109B000018220021043002F0E3FC2D0B0123237105
:109B100001A90848C4F80080A760E5606661FDF708
:109B20004CFFFFF7D1FF002002B0BDE8F081042018
:109B3000FAE700BFA83700202DE9F34180460F4621
:109B40000F4801A916461D46FDF70DFF0446A8B1B2
:109B500018220021043002F0BBFC089BA36001A97D
:109B6000C4E903670648C4F800806561FDF725FF76
:109B7000FFF7AAFF002002B0BDE8F0810420FAE759
:109B8000A83700200220FEF711BD00002DE9F047A4
:109B900080460D46FEF72AFD0328044610D8012D05
:109BA00010D0022D30D05DB91A48FDF74CFB1A4B8E
:109BB00004EB440213449D78184B1B5DAB4219D053
:109BC000BDE8F087144E00EB4003F218F55C5378C3
:109BD000470053B1DFF84C900E484A464FF480419D
:109BE000FDF719FB08B989F8008027443E440B4B68
:109BF000B2781A55002DE3D0094B1B68002BDFD03B
:109C00002846BDE8F047184700EB400402480444EA
:109C10006578EFE7F8370020383800205138002009
:109C20004C380020D437002000780221FFF7AEBF67
:109C300008B5094B1B7853B10020FEF78DFC0120BD
:109C4000FEF78AFCBDE808400320FEF785BCBDE8AE
:109C50000840FEF78DBC00BFD5370020F8B57A4C20
:109C6000237805461BB100232370FFF7E1FF172D72
:109C700000F28780DFE805F00C1717425364757F08
:109C8000878C878C949999999999C3C8D0D8E3E324
:109C9000FFF7CEFF6D48FDF7D6FA6D4B0022044664
:109CA0001A702046F8BD0020FEF73CFCF0B1002001
:109CB000FEF752FC022D0CBF4FF4E1644FF47A64BE
:109CC000634B1D7000254FF400464FF47A7029460F
:109CD0004FF4FA620023E4FB060102F0EFFA2A4691
:109CE0000146BDE8F8405948FDF795BAFEF728FC53
:109CF000022D0CBFC8244FF4C874E1E70020FEF722
:109D000011FC40B10020FEF727FC4FF44874504B83
:109D100003221A70D6E7FEF713FCC824F7E70020E9
:109D2000FEF700FC38B10020FEF716FC4FF47A6411
:109D3000474B0422EDE7FEF703FC4FF4C874F7E746
:109D40000020FEF7EFFB48B10020FEF705FC404B7A
:109D500005221A7040F6CD410022C2E7FEF7F0FB63
:109D6000F5E70020FEF722FC394B06221A7000228C
:109D700040F26661B5E70020FEF7E2FB344B0722B4
:109D80001A7000248DE701202070FEF70FFCEEE72B
:109D900001202070FEF70AFC00224FF40051A0E7DA
:109DA000FEF7F5FB2A4B0C22EAE72A482A4EFDF77C
:109DB0004AFAD5F1110504461CD0D8B9012D13D0AB
:109DC000C820454321464FF400474FF47A704FF4C2
:109DD000FA620023C5FB070102F070FA2246014631
:109DE0001C48FDF718FA04460220FEF7A9FB0123E0
:109DF000337056E70220FEF7AFFB0023F8E7FFF7CA
:109E000017FF134B1222BBE7FFF712FF0020FEF7EC
:109E100097FB0F4B1322B3E7FFF70AFF0120FEF772
:109E20008FFB0B4B1422ABE7FFF702FF0020FEF77E
:109E300087FB0120FEF784FB054B1522A0E7FEF708
:109E4000A6FB034B1D709CE7483800201838002003
:109E500050380020D8370020D5370020044B1B682D
:109E6000DB0703D5034B1878FFF7F8BE704700BF38
:109E7000443800205038002010B5002914BF0324B6
:109E80000024FEF7C5FB800000F1A040D0F80027B9
:109E900022F44032C0F80027D0F8003743EA0443E8
:109EA000C0F80037002010BD032801D8FEF790BB92
:109EB00000207047044B1B6813F0010301D0FFF72B
:109EC000CDBE1846704700BF4438002038B51C4B43
:109ED00018601C4B10F00204054619601AD01A4B8A
:109EE0001A480E221A700F22DA7010229A7111226B
:109EF0005A72042140F23332FCF7F2FF044648B9AB
:109F0000FDF746F8044628B90146114A1148FDF705
:109F100077F90446EB0711D50120FEF77FFB6CB9FA
:109F200021460D4A0D48FDF76BF9044630B9BDE8EE
:109F300038400B4A0B480121FDF762B9204638BD75
:109F4000443800204C38002038380020A0CF0200D0
:109F5000299C0200C4CF02005D9E0200C8CF02000F
:109F6000859B0200C0CF0200032811D8012A0AD124
:109F700001290FD100F10E02D2B20D4B00EB4000CF
:109F80001A54002070470129F7D0022904D049B1A2
:109F9000072070470022F8E7054B00EB400018440B
:109FA0004270EEE7024B00EB400018448270E8E795
:109FB00038380020032802D80121FFF75DBF0620B2
:109FC000704708B5012202210020FFF7CDFF08B13C
:109FD000072810D1072202210120FFF7C5FF08B191
:109FE000072808D100210A220846FFF7BDFF10B15B
:109FF000072808BF002008BD0388102B10B502D029
:10A00000112B1ED010BD1A4C2168B1B9012208468F
:10A01000FFF7AAFF08B1072824D107220221012057
:10A02000FFF7A2FF08B107281CD10422022100205B
:10A03000FFF79AFF08B1072814D123680133236082
:10A04000E0E70B4A1368013B1360002BDAD1FFF7FE
:10A05000B8FF0028D6D0074B1B68002BD2D0BDE834
:10A0600010401847034B1B68002BE6D09847E4E7E5
:10A070005C3800205838002008B50020FFF79AFF10
:10A0800008B1062806D10120FFF794FF10B1062879
:10A0900008BF002008BD00000D4B10B518600C462D
:10A0A00029B10120FFF700FF40B102232370094BC3
:10A0B0001B6853B9BDE81040FFF783BFFFF7F4FEFC
:10A0C00008B10B23F2E72070F1E7002010BD00BFBC
:10A0D000583800205C38002076DF70477ADF704700
:10A0E0007CDF70477FDF70478FDF7047B1DF7047DD
:10A0F00033DF7047FCF762BF08B50020FFF7DAFED8
:10A1000008B1FCF75BFFFFF7B7FF08B1FCF756FF9C
:10A11000FFF7EEFF18B1BDE80840FCF74FBF08BDE0
:10A120000388212B13B504463FD007D8112B2DD01F
:10A13000132B48D0102B0CD002B010BD522B4AD09C
:10A14000562B01D03B2BF7D1A0881321FFF7C4FF7A
:10A1500015E0254B25482649C01AC008000440F0E8
:10A160000300FCF73BFC0720FFF7A4FE08B1FCF757
:10A1700025FF204BA1882048198001F093FC00287E
:10A18000DAD002B0BDE81040FCF718BF164B1748F4
:10A190001A49C01AC008000440F00300FCF71EFC76
:10A1A000144B4FF6FF721A80C6E7002380888DF8A3
:10A1B000043001A98DF80530FFF796FF0028BBD0C9
:10A1C000FCF7FCFEB8E70B4800231A4685210088FF
:10A1D000FFF788FFD3E7074800231A46194600888F
:10A1E000FFF784FFCBE700BF6CC6020094C60200F5
:10A1F000CCCF02001A2B0020A43D0020D6CF0200B5
:10A2000008B503784BB9054B3B211888FFF764FF6D
:10A2100018B1BDE80840FCF7D1BE08BD1A2B0020DC
:10A22000072808B513D00A280DD0042819D10D4BE2
:10A2300013211888FFF750FF30F0080311D0BDE854
:10A240000840FCF7BBBEBDE80840FFF755BF054B13
:10A250001A884FF6FF739A4203D1034800F0C3FFF8
:10A26000EAE708BD1A2B00205839002008B548B18C
:10A2700003280BD10220FFF71DFE38B1BDE80840CE
:10A28000FCF79CBEBDE80840FFF736BF08BD0000E4
:10A29000F7B50378012B33D0022B31D073BB1B4CA5
:10A2A0001B4D20782844FDF773F923780133DBB286
:10A2B0001D44237015F8012C0A2A05D00D2A03D05D
:10A2C000144A12889A4219D8012B15D9124D104EF2
:10A2D000124F2378ADF806300DF106022B88314677
:10A2E000384601F057FD082806D01328F1D005287C
:10A2F00002D008B1FCF762FE0023237003B0F0BD6A
:10A30000406803B0BDE8F040FCF758BE5439002067
:10A3100060380020182B00201A2B00201C2B002056
:10A320002DE9F0410578064645BB154C154BDFF885
:10A330005880E41AE408240444F00104B28A9542E7
:10A340000AD33369134413F8013C0D2B16D10A20AC
:10A35000FDF734F91128F9E73369585DFDF72EF957
:10A36000074648B11128F7D0024641462046FCF77F
:10A3700039FB3846FCF722FE0135DFE7BDE8F08106
:10A3800094C602006CC60200E3CF02000D4B4A885F
:10A390001B889A4214D10A8840F677239A420FD13B
:10A3A0008B88094A09480A49033B9BB21380094A32
:10A3B000801AC00800041A4640F00300FCF71BBBDB
:10A3C000704700BF1A2B0020182B002094C60200F3
:10A3D0000ED002006CC60200FCF7F0BD08B50849BB
:10A3E000084801F03FFA08B1FCF7E8FD0548F721FD
:10A3F00001F04CFA18B1BDE80840FCF7DFBD08BD1C
:10A400008DA302008C3D002000B5734D0FCDB1B07F
:10A4100005AC0FC495E80300704B714A01934FF4EB
:10A42000807384E80300CDE9032302936D4A072378
:10A4300001A905A8FDF754F808B1FCF7BFFD4FF4DA
:10A4400080410020FCF726F908B1FCF7B7FDFCF7C6
:10A450005BF8FCF7A3FE08B1FCF7B0FD62490320EE
:10A46000FFF734FD08B1FCF7A9FD05A90020FFF7AF
:10A4700013FE08B1FCF7A2FDFDF73EFE08B1FCF7A4
:10A480009DFD01F01BFD08B1FCF798FD002305A917
:10A490000120059301F0E4FD08B1FCF78FFD05A84C
:10A4A00001F09EFE08B1FCF789FD11234F498DF89C
:10A4B00004300B2201A8FFF713FE08B1FCF77EFD64
:10A4C0000023ADF818301023ADF814303C23ADF85C
:10A4D000163005A84FF4C873ADF81A30FFF7FEFD2B
:10A4E00008B1FCF76BFDFFF779FF414B414805933D
:10A4F00005A901F0C5FA08B1FCF760FD3E4B3F48E5
:10A50000019301A901F0CCFB08B1FCF757FDAC2287
:10A51000002105A801F0DCFF02238DF8143005238B
:10A520008DF8173001234021ADF860308DF8903060
:10A5300044F25063CDE92713314A324B3248199225
:10A5400005A92E9300F093FC08B1FCF737FD2E48C7
:10A55000012100F089FC14220DEB0200002101F022
:10A56000B7FF4FF4F0234FF4A032CDE906230323C5
:10A570008DF82030254B0A9305A8254B0B9300F04E
:10A5800051FF08B1FCF71AFD00F0CCF82148224C2D
:10A5900001F059FF214B2249E41AE408240444F055
:10A5A00003042046FCF71AFA1748032100F0DCFCEC
:10A5B00008B1FCF703FD00F003F91A492046FCF747
:10A5C0000DFAFCF7B7F80028FBD1FCF7B3F8002828
:10A5D000F7D1FDF7A7FDF4E784D00200B03D0020DD
:10A5E000B03E002091A2020021A202002AD0020067
:10A5F000F5A00200A43D002021A302001C2B002096
:10A60000142B00206DA202005839002001A2020084
:10A61000D9A3020036D0020094C602006CC6020024
:10A6200047D0020070D00200436810B45BB11548F7
:10A63000154B16495DF8044BC01AC008000440F0E1
:10A640000300FCF7CBB90378012B04D0022B10D008
:10A650005DF8044B70470C4B0A4C02690C49E41A34
:10A66000E4088368240444F003005DF8044BFCF71D
:10A67000C2B9054B034C02690649E41AE408836831
:10A680002404F0E794C602006CC602009CD00200CD
:10A69000DDD0020011D1020070B50A4D0646FA2441
:10A6A00045F001053046FFF7BFF808B9012070BD3D
:10A6B0004FF47A40A8474FF47A40A847013CF1D1C3
:10A6C0002046F4E7E0D1020073B50546114C12486C
:10A6D000241A0823E408240400930B680E462A4633
:10A6E0000E4944F00300FCF790F9FCF723F800282A
:10A6F000FBD1009008230A4832462946FEF7FAFFAC
:10A7000008B1FCF75BFC064802B0BDE87040FFF7FB
:10A71000C3BF00BF94C602006CC6020047D102004E
:10A72000D82A002013B5002214491548FEF7B0FFBF
:10A7300008B1FCF743FC124C2046FFF7ADFF114B6C
:10A7400011481249C01AC008000440F003000190EB
:10A75000FCF744F9636801981A680D49FCF742F95F
:10A76000636801985A680B49FCF73CF90A4901985B
:10A7700002B0BDE81040FCF731B900BF80CF020045
:10A78000D82A00206CC6020094C6020069D10200DB
:10A7900088D102009ED10200B6D1020007B5074B56
:10A7A000DB6840F6DC6203EBC000CDE900216946BE
:10A7B000FFF78AFF03B05DF804FB00BFD82A002032
:10A7C00070B5064D00246FF00F0606FB0451E0B291
:10A7D0000134FFF7E3FF102CF7D170BDDDCCBBAA2D
:10A7E0000369C26893429CBF80681B18013B981A9A
:10A7F00070472DE9F843D0E902940546A9EB040817
:10A800004068904520440F46144404D901F037FEB7
:10A81000EC60BDE8F8834246A4EB090401F02FFE8A
:10A820006868224607EB0801F0E72DE9F843C568A0
:10A830000646894617464FF000083469B3687068C9
:10A84000A54228BFE418013C621B5C1BBC4228BF28
:10A850003C46944228BF144649462844224601F00B
:10A860000EFEB3682544AB4208BF00253F1BA04441
:10A87000A144F560E1D14046BDE8F88310B5114C24
:10A88000114AA2610223C4E90433104BE361A264BC
:10A8900042F248030E4A0F492362E2640023102269
:10A8A000E01DA3626362E362A3656365E3652265FD
:10A8B00001F041FE0849204601F03DFE2023A3712E
:10A8C00010BD00BFB03F0020E6D10200384000209C
:10A8D00028400020EFD10200F3D1020070B5164BE2
:10A8E000182400FB04451D4404FB00331646DC6AB3
:10A8F000012C0ED0022C18D0E4B92846FFF770FFC7
:10A90000864204D832462846FFF773FF3446204675
:10A9100070BD2846FFF764FF8642344628BF0446D0
:10A9200022462846FFF765FFF1E72846BDE870405C
:10A93000FFF77BBF0024EAE7B03F0020FFF79EBF90
:10A940006DDF704779DF70477DDF704764DF7047E8
:10A950002DE9F04F85B000250E9CBDF83CB0B4F851
:10A9600000A00191074690461E46A9463A884A45EE
:10A970000DDC45B12388013BA3EB0A039BB2FF2BFF
:10A980003AD806F80A30002005B0BDE8F08F7A68A2
:10A9900052F82900039000220DF10B0103A8FFF7E4
:10A9A000D5FF0028F0D19DF80B20424521D1228807
:10A9B000002D14BF0020022002EB0801014459457C
:10A9C0001ADC3DB9013292B2019B2280B354228835
:10A9D0000132228022880DF10B01324403A8FFF7D7
:10A9E000B5FF0028D0D121889DF80B200A44228091
:10A9F000012509F10109B9E70C20C5E72DE9F3416B
:10AA0000089FBDF824801546CDE90078022204464F
:10AA10001E46FFF79DFF50B93346102229462046B7
:10AA2000CDE9087802B0BDE8F041FFF791BF02B070
:10AA3000BDE8F0812DE9F04F00231788138090F8CE
:10AA40002D3085B006460D4614465BB3082F01D85D
:10AA50000C2028E102A8FFF773FF002840F02381B3
:10AA60002388DDF809100822EA54238801339BB2B9
:10AA70001B222380EA54238801339BB2EA182380E7
:10AA8000E950BDF80D30938023889DF808200633E7
:10AA90009BB212F0FE0218BF01222380EA542388E1
:10AAA00001332380B378FBB123880433BB42CFD872
:10AAB00002A8FFF747FF002840F0F5802388032213
:10AAC000EA54238801339BB219222380EA54238855
:10AAD000BDF8082001339BB2E9182380EA54120A1A
:10AAE0004A70238802332380F2789AB12388D91CD4
:10AAF000B942ADD80221E954238801339BB2012128
:10AB00002380E95423880B449BB22380EA54238892
:10AB10000B4423807268AAB12388D91CB94297D804
:10AB2000022192F90020E954238801339BB20A21C3
:10AB30002380E954238801339BB22380EA5423887D
:10AB4000013323803389002B40F0A180338A5BB12D
:10AB5000CDE900472B460722032106F11000FFF73D
:10AB60004DFF002840F09F80338B5BB1CDE900475B
:10AB70002B461522142106F11800FFF73FFF00288D
:10AB800040F09180326A002A40F09080D6F824800C
:10AB9000B8F1000F30D0B8F804302188981C8A1C16
:10ABA0000244BA423FF654AFFE283FF651AF03339A
:10ABB0006B54238801339BB2FF222380EA542388FD
:10ABC00001339BB22380B8F80020EA54E918120A36
:10ABD0004A702088023080B22080B8F804205AB130
:10ABE000D8F8081000296BD0284401F048FC2388CD
:10ABF000B8F804201344238096F82C30002B40F042
:10AC00009880307800284ED03388012B58D0228885
:10AC100002F1020CBC453FF61BAF012805D1737849
:10AC2000023313449F42FFF413AF023FBF1ABFB277
:10AC300002A905EB0C00ADF80870FFF785FE90BB8C
:10AC40003178BDF80830022900F0B98072789A4254
:10AC500002D39F4280F0B180012940F0B280974238
:10AC600093B2C0F0AE80ADF808300821BDF80830CE
:10AC7000FE2B3FF6EDAE22880133AB542288013221
:10AC800092B22280A9542288134423800BE0CDE99C
:10AC900000472B460622022106F10800FFF7AEFE10
:10ACA00000283FF453AF05B0BDE8F08FB4F800C002
:10ACB0000CF10603BB423FF6CBAE1188052901D843
:10ACC0000720F0E76FF4486E01EB0E039BB24FF2E2
:10ACD0007D3E7345F4D95388052BF1D96FF4486054
:10ACE000181880B27045EBD94FF6FF70814201D041
:10ACF0009942E5D8052305F80C30238801339BB22F
:10AD000012212380E954238801339BB223801188C8
:10AD1000E954E818090A4170238802339BB2238062
:10AD20005288EA54E918120A4A70238802332380B1
:10AD30002CE7B36A002BC3D04FF000084FF00C0A89
:10AD40004FF0160BB16A5FFA88F20AFB02F201EBD0
:10AD50000209B9F80430981CFE283FF679AE208825
:10AD600003332B54238801339BB2238005F803B0AF
:10AD7000238801339BB223808A5AEA54E918120AC5
:10AD80004A702088023080B22080B9F804205AB17D
:10AD9000D9F80810002993D0284401F070FB2388CB
:10ADA000B9F804201344238096F82C2008F10108F8
:10ADB0005FFA88F39A42C5D823E7092156E79F42F4
:10ADC000FBD2ADF8087050E730B5C8B1F2B100243D
:10ADD000651C8D4206DA1588A54212D805196D78D2
:10ADE0009D420ED1A14211D9005D48B1013880B217
:10ADF00030B10234A3B210FA84F4A14206DB13800E
:10AE000030BD055D01352C44A4B2E1E70020F7E731
:10AE100013B513460022ADF806200DF106020446D4
:10AE2000FFF7D2FF10B1BDF80630E01802B010BD38
:10AE300072DF704773DF704774DF704738B50122E7
:10AE400004460D46B0F81414D0F81004FFF7E0FFE4
:10AE500000B1057004F13C0204F5826104F1540074
:10AE6000BDE83840FFF7E4BF80F830107047F8B510
:10AE700004460F46002973D0002871D091F87A302B
:10AE80001BB191F89830002B6CD1D7F8A030042B6F
:10AE900068D0D7F89C30042B64D04FF0000C84F8B5
:10AEA00002C007F178060FCE251D0FC50FCE0FC5C6
:10AEB00096E8070085E8070084F830C0D7F8A4308A
:10AEC0006363D7F8A830A36304F582624FF6FF737B
:10AED000C4F826C4A4F82434C4F82024C4F829C42F
:10AEE00022780AB984F8543094F82430002B14BF27
:10AEF000EE231F2304F15501C4F81014A4F81434F0
:10AF000004F214423846FFF795FD40BB94F8243014
:10AF1000002B14BFEE231F2304F23121C4F81814B0
:10AF2000A4F81C3404F21C4207F13C00FFF782FD38
:10AF3000A8B9A369A4F848304FF480730125A4F898
:10AF4000503063692064014684F83C50636404F126
:10AF50003C0204F15400FFF76BFF00B92570F8BD07
:10AF60000E20FCE70720FAE7F8B5077804460D46FF
:10AF7000002F00F001810023C0F82634C0F82934E6
:10AF8000C388817000F226460BB1012903D0E37912
:10AF900043B1022D06D1636BABB1012284F82D249D
:10AFA0000820984704F2274304F22D4113F8012B9F
:10AFB00012B99942FAD117466B1E032B4ED8DFE81F
:10AFC00003F0050B0F1284F82D34EBE7A3791BB1C6
:10AFD00094F8243003B95FB9E3790BB1002F3FD166
:10AFE000237A002B3ED1637A002B0CBF0025042569
:10AFF000636BA570002B37D0033D012D34D86279E7
:10B0000092B394F82E247ABB84F83024012284F879
:10B010002F240720984704F13C05182200212846D8
:10B0200001F056FAE26A531E0121022B28BF0A469C
:10B0300084F8512094F8242084F83C1032B1A36A9B
:10B04000581E022828BF0B4684F85230A378042BE0
:10B050001CD8DFE803F0780D23365A000025C7E737
:10B060000225C5E70325C3E7002384F82F34D2E780
:10B07000012384F831300023C4E91063C4F820347C
:10B08000022384F83C308023A4F84830A378002BB6
:10B090005DD1636B002B6BD1002068E00223002A96
:10B0A00084F8313014BF0723032384F83C3023692C
:10B0B000A4F848300023C4F82034E36826646364AD
:10B0C000E4E763696364A369A4F8483012B1062316
:10B0D00084F83C306379B3B194F82E349BB994F87A
:10B0E000303483B1022384F8503004212046FFF726
:10B0F000A5FE0028CAD1052384F8313004F5826307
:10B10000C4F82034C2E70323F6E7E3696364236AE3
:10B11000A4F8483012B1062384F83C30637983B137
:10B1200094F82E346BB994F8303453B1022384F878
:10B13000503004212046FFF781FE0028A6D10623C7
:10B14000DAE70423D8E7002384F831309EE7D4F807
:10B1500020142A4604F15400FFF76AFE38B994F827
:10B16000301094F85400FFF765FE002891D0F8BD28
:10B1700094F8310098478FE70820F8E70388112BEF
:10B1800010B50C460AD0262B1FD0102B05D1C37B3F
:10B19000012B02D18388A1F8243410BD00228388BA
:10B1A00081F82E24B1F824249A42F6D10B79002B91
:10B1B000F3D101212046FFF7D7FE0028EDD0A36B85
:10B1C000002BEAD0BDE810401847037A013B012B61
:10B1D000E3D8897805230131B1FBF3F303EB830353
:10B1E000C91AC9B2E6E738B5044690F85400FFF72B
:10B1F00023FE012384F82E34002384F8303484F8AD
:10B20000503006212046FFF719FE054638B9A178CF
:10B210002046FFF7A9FE10B1A36B03B1984728465B
:10B2200038BD75DF704776DF70477ADF70477BDFA8
:10B2300070470000034B1A8882420CBF184600205A
:10B24000704700BF9C600020024B9B6903B1184708
:10B25000704700BF8060002073B585B22846FFF7B5
:10B26000E9FF044638B3174E027A337B9A420CD278
:10B2700000F10A012846FFF7D4FFF0B111281AD0D7
:10B2800002B0BDE87040FFF7DFBF00230372337CDC
:10B2900043B13B212846FFF7C6FF30F0080301D039
:10B2A000FFF7D2FF736933B100228DF80420ADF8A7
:10B2B000065001A8984702B070BD237A013323726B
:10B2C000F9E700BF8060002037B50B46497A0F4A86
:10B2D00079B9D2E901141D7A0246002D18BF214622
:10B2E0005868FBF798FF78B103B0BDE83040FFF72E
:10B2F000ABBF00211972536933B10122ADF80600CA
:10B300008DF8042001A8984703B030BD806000206C
:10B310004B8802889A4212D842889A420FD380887A
:10B320008B8840F2F311884294BF021A421A9A4263
:10B3300005D80844984234BF0020012070470020FF
:10B34000704700000388122B70B5014659D004D80D
:10B35000102B1ED0112B44D070BD502BFCD12F4B85
:10B36000C288DB899A42F7D1038A022BF4D18688FE
:10B370003046FFF75FFF05460028EDD001F11200CF
:10B3800000F07FF938BB6868FBF75DFF0028E3D069
:10B3900009E0C37B012BDFD14FF6FF70FFF74AFFB7
:10B3A000054620B90420BDE87040FFF74DBF1C4A98
:10B3B0008E880680002303721368C0F80A30536831
:10B3C000C0F80E3010310A30FFF7A2FF134B68723D
:10B3D000DB89002BC0D129463046BDE87040FFF71D
:10B3E00073BF8088FFF726FF04460028B4D040686A
:10B3F000FBF729FF08B1FFF727FF4FF6FF73238004
:10B40000AAE786883046FFF715FF05460028A3D037
:10B4100008310A30FFF77CFF6872DCE780600020AB
:10B42000B0600020F8B5064648B305460FCD154F6D
:10B430003C460FC495E8070084E807003068124CCA
:10B440003C60B0B1FFF7F1FEC0B932681368236009
:10B45000536863600D480E4A4FF6FF7303800D4B2F
:10B4600040F8043F0021FBF7CBFE002818BF032063
:10B4700004E02046FFF7DBFE0028EBD0F8BD0E20ED
:10B48000FCE700BF80600020B06000209C600020CE
:10B4900059B20200B86000200AB1FCF7D9BAFCF733
:10B4A000E0BA73B50191019C06466CB100252C46AB
:10B4B000294601A8FCF7DFFA18B106EB4403013472
:10B4C0009D800135142DF3D13046346002B070BD3B
:10B4D0002DE9F04703888488103B8CB005460A2B81
:10B4E00021D8DFE803F0064020202020202020651E
:10B4F0004700DFF8E880D8F80830DB430093D8F83D
:10B5000004106846FCF7EFFA009901A8FFF7C9FF9D
:10B510000DF108090027019B9F4207D3132C12D974
:10B520000420FBF74BFD0CB0BDE8F08739F802AB07
:10B5300000260136514608EB8600FCF792FA1E2ED3
:10B54000F7D10137E7E71F482146FCF781FA1E488B
:10B550002146FCF77DFAEB7B022BE4D11B48214608
:10B56000FCF776FADFE7174821460CB0BDE8F04754
:10B57000FCF777BA027A16483F2A4FEA121521469D
:10B5800094BF00220122FFF787FF022D94BF002203
:10B59000012210482146FFF77FFF012D0E4894BF7E
:10B5A0000022012221460CB0BDE8F047FFF774BF2E
:10B5B000037A002BB7D1427A0548C2F3C002214674
:10B5C000F1E700BFE0600020DC600020E4600020C4
:10B5D000F0600020EC600020E8600020D8600020CF
:10B5E0001328014602D80248FCF745BA00207047EC
:10B5F000DC60002010B50446FFF7F2FF002814BFFE
:10B600002046142010BD70B50546164608460AB9F6
:10B610000E2070BD00231360002DF9D02B68002B85
:10B62000F6D0EB8813F003040ED1FFF7E3FFC0B2AE
:10B6300014280BD02B7983420AD9EA882B6800FBA7
:10B64000023030602046E4E70720E2E70520E0E72B
:10B650000420DEE7AADF7047002301380B700428BE
:10B6600006D8DFE800F00306080A0C0011230B706F
:10B6700070472123FBE73123F9E71223F7E7222361
:10B68000F5E7008800F001007047F0B58B7891B0C5
:10B690000C46012B38BF012300278DF80E300546DC
:10B6A0000B88607CADF80C306946ADF800708DF801
:10B6B0000270FFF7D1FFA07C0DF10101FFF7CCFF75
:10B6C0001646237BE27B217D43EAC203227C43EAC8
:10B6D00002139DF80220B94222F0190203F0190367
:10B6E00014BF02210121134361F342031C22394696
:10B6F00009A88DF8023000F0EBFE637B13F0300FE9
:10B7000014D00DF10901E07CADF808708DF80A70D5
:10B71000FFF7A2FF11238DF808309DF80A300121B0
:10B7200002AA61F342038DF80A300E92637B8DF812
:10B730002430A37B8DF825300023CDE90633089310
:10B7400003AB0493A388ADF81C30A368CDF814D0E4
:10B750001BB1E288ADF818200893A36973B301A95F
:10B760000022ADF804208A701A88ADF82C205A887F
:10B77000ADF82E205A680D91187B0A92FFF76CFFE6
:10B78000A3690DF10501587BFFF766FFA3699A7A5B
:10B79000197A41EAC201DA7A9B7B41EA02119DF8EB
:10B7A0000620002B01F0190122F0190214BF022318
:10B7B0000123114363F342018DF80610E36903B1DD
:10B7C0000C93334604AA09A92846FFF743FF11B09A
:10B7D000F0BD90DF7047A5DF7047B5DF7047000010
:10B7E0007FB50023ADF80810ADF80A106A4602A92B
:10B7F0000646ADF80C30ADF80E300093ADF80430CD
:10B80000FFF7E7FF054600B3114B124CE41AE408BA
:10B81000FCF714FD240444F0010403460E493246AB
:10B820002046FBF7E8F8BDF80020BDF8023052EAE8
:10B83000030103D009492046FBF7DDF8BDF80420D9
:10B840001AB107492046FBF7CDF8284604B070BD71
:10B850006CC60200BCC60200FAD1020044D202004B
:10B8600083D2020080B14FF0F7130360FB23037112
:10B87000F723C3801723038141F6FB3200230161C4
:10B8800043818281184670470E20704730B1A1F184
:10B890001703E02B04D80180002070470E2070476A
:10B8A0000720704713B5034680880C46B8B91A883C
:10B8B000242A00F09C8014D8112A74D0232A00F086
:10B8C000A780102A3ED0A37A4BB1E1880020FFF771
:10B8D00082FF002840F0A2804FF48073638102B0A1
:10B8E00010BD3A2A68D0552AEDD1DB88C988A072EC
:10B8F000172B38BF17238B4228BF0B462381FFF736
:10B900006CFF60B1FCF79AFC4E4B4F4902464F4822
:10B910001B1ADB081B0443F00100FBF763F8E27A13
:10B92000002AD0D12369002BCDD040F67721ADF885
:10B9300002202289ADF80010ADF8042069462046A7
:10B940009847C0E7DB7B0A790A73012B13D0022BDF
:10B9500014D0E18823898B4205D20020FFF73BFFFA
:10B9600070B90123E372217B637B8B42ABD2002051
:10B97000FFF736FFA7E70B88E380EAE74B88FBE792
:10B98000112802D10123A372EDE7FCF757FC2D4BE0
:10B990002F4902462D481B1ADB081B0443F0010007
:10B9A000FBF720F8DFE7F723CB8017230B8141F665
:10B9B000FB3348818B8186E75B89CA88934228BF25
:10B9C0001346172B0A6938BF17230B8162B1C97A56
:10B9D00051B140F67721ADF80010ADF80200ADF896
:10B9E0000430694620469047002363816BE71A7A4A
:10B9F0000B694A73002B3FF466AF4DF67A218DF840
:10BA00000500ADF80010ADF802008DF8042095E7B0
:10BA1000197A237B994228BF1946A9E711283FF4D8
:10BA20005EAFFCF70BFC074B0949024607481B1A9F
:10BA3000DB081B0443F0010002B0BDE81040FAF738
:10BA4000D1BF00BFBCC602000AD302006CC6020010
:10BA5000D9D20200B0DF704766DF704710B5002111
:10BA600004464088FFF7F8FF034608B9237210BD6B
:10BA7000112801D10123F9E76368BDE81040184798
:10BA800060B159B10378DE2B0AD00B684360DE2326
:10BA900003704FF6FF734380002070470E207047FD
:10BAA0000820704728B10378DE2B04D141800020A4
:10BAB00070470E20704708207047F0B5054685B0E6
:10BAC0000C46002942D0002840D00B78DE2B3DD117
:10BAD00082884B889A4204D10B7A13B10846FFF74B
